:100000000C942A000C9447000C9447000C94470071
:100010000C9447000C9447000C9447000C94470044
:100020000C9447000C9447000C9455100C9422102B
:100030000C9447000C9447000C9447000C94470024
:100040000C9447000C9447000C9447000C94470014
:100050000C94470011241FBECFE5D8E0DEBFCDBF12
:1000600013E0A0E6B0E0E2E8F9E402C005900D92EA
:10007000AA31B107D9F713E0AAE1B3E001C01D929C
:10008000A733B107E1F70E94811B0C94BF240C94A5
:100090000000EF92FF920F931F937B018C0120E0F1
:1000A00030E040E05FE40E94F50388238CF0C80153
:1000B000B70120E030E040E05FE40E94C1010E940F
:1000C000B3049B01AC01205030404040504806C072
:1000D000C801B7010E94B3049B01AC01B901CA0178
:1000E0001F910F91FF90EF900895A0E0B0E0EBE733
:1000F000F0E00C948824DC012B01FA019C919230F1
:1001000008F439C1EB018881823008F433C194309E
:1001100069F4843009F02FC111969C91119789815F
:10012000981709F428C1AFEAB1E025C1843009F479
:1001300021C18230A9F4923009F01DC19A01AD01AC
:1001400088E0EA010990AE01E90109929E0181501F
:10015000C1F7E201898111969C918923818308C1AD
:10016000923009F407C112962D903C901397EB0141
:100170008A819B811496AD90BD90CD90DC901797AD
:10018000EC80FD800E811F819101281B390BB90184
:1001900037FF04C066277727621B730B6032710537
:1001A0000CF061C0121613066CF537014801062EDB
:1001B00004C096948794779467940A94D2F721E0C8
:1001C00030E040E050E004C0220F331F441F551FB1
:1001D0006A95D2F721503040404050402E213F21B7
:1001E00040235123211531054105510521F021E01E
:1001F00030E040E050E079018A01E628F72808293C
:1002000019293CC0232BD1F1260E371E350146019A
:10021000062E04C096948794779467940A94D2F734
:1002200021E030E040E050E004C0220F331F441FC3
:10023000551F6A95D2F721503040404050402A2146
:100240003B214C215D21211531054105510521F04E
:1002500021E030E040E050E059016A01A628B728CB
:10026000C828D9280BC0821593052CF01C01AA249C
:10027000BB24650103C0EE24FF24870111969C91E5
:10028000D20111968C91981709F445C0992339F041
:10029000A80197012A193B094C095D0906C0A6016E
:1002A00095012E193F09400B510B57FD08C01182D3
:1002B0003382228224833583468357831DC081E0A5
:1002C00081833382228288279927DC01821B930B4A
:1002D000A40BB50B84839583A683B7830DC0220F2F
:1002E000331F441F551F24833583468357838281E0
:1002F000938101979383828324813581468157813D
:10030000DA01C9010197A109B1098F5F9F4FAF4F72
:10031000BF4328F30BC0918333822282EA0CFB1C7B
:100320000C1D1D1DE482F5820683178383E0808304
:10033000248135814681578157FF1AC0C901AA27F8
:1003400097FDA095BA2F81709070A070B0705695EF
:10035000479537952795822B932BA42BB52B848318
:100360009583A683B7838281938101969383828349
:10037000DF0101C0D201CD01CDB7DEB7E2E10C94BF
:10038000A424A0E2B0E0E7ECF1E00C9494246983AB
:100390007A838B839C832D833E834F835887E9E048
:1003A000EE2EF12CEC0EFD1ECE010196B7010E943F
:1003B000A4068E010F5E1F4FCE010596B8010E9464
:1003C000A4068A8991E089278A8BC701B801AE010A
:1003D000475E5F4F0E9475000E94CF05A096E6E041
:1003E0000C94B024A0E2B0E0E8EFF1E00C94942487
:1003F00069837A838B839C832D833E834F835887C5
:10040000F9E0EF2EF12CEC0EFD1ECE010196B701A6
:100410000E94A4068E010F5E1F4FCE010596B80103
:100420000E94A406C701B801AE01475E5F4F0E945B
:1004300075000E94CF05A096E6E00C94B024A0E2DF
:10044000B0E0E5E2F2E00C94882469837A838B8340
:100450009C832D833E834F835887CE010196BE0136
:10046000675F7F4F0E94A406CE010596BE016F5EB6
:100470007F4F0E94A4069985923088F08989823046
:10048000C8F0943019F4823051F404C0843029F457
:10049000923081F48FEA91E0C6C0923049F420E0B6
:1004A0009A858A89981321E02A87CE010996BBC0D4
:1004B000823049F420E09A858A89981321E02A8BBA
:1004C000CE014196B0C02D843E844F8458886D88FB
:1004D0007E888F88988CEE24FF248701AA24BB2471
:1004E000650140E050E060E070E0E0E0F0E0C10174
:1004F00081709070892BE9F0E60CF71C081D191D1E
:100500009A01AB012A0D3B1D4C1D5D1D80E090E062
:10051000A0E0B0E0E614F7040805190520F481E036
:1005200090E0A0E0B0E0BA01A901480F591F6A1F8E
:100530007B1FAA0CBB1CCC1CDD1C97FE08C081E0F5
:1005400090E0A0E0B0E0A82AB92ACA2ADB2A3196B6
:10055000E032F10549F0660C771C881C991C569412
:10056000479437942794C3CFFA85EA892B893C892D
:100570008B859C85280F391F2E5F3F4F17C0CA01FE
:1005800081709070892B61F016950795F794E79428
:1005900080E090E0A0E0B0E8E82AF92A0A2B1B2BC3
:1005A00076956795579547952F5F3F4F77FDE7CF36
:1005B0000CC0440F551F661F771F17FD4160EE0CDE
:1005C000FF1C001F111F21503040403090E05907A0
:1005D00090E0690790E4790760F32B8F3C8FDB0193
:1005E000CA018F779070A070B07080349105A1051A
:1005F000B10561F447FD0AC0E114F10401051105DC
:1006000029F0405C5F4F6F4F7F4F40781A8EFE1786
:1006100011F081E08A8F4D8F5E8F6F8F78A383E01A
:10062000898FCE0149960E94CF05A096E2E10C94F5
:10063000A424A8E1B0E0EFE1F3E00C9490246983F6
:100640007A838B839C832D833E834F835887B9E0C5
:10065000EB2EF12CEC0EFD1ECE010196B7010E948F
:10066000A4068E010F5E1F4FCE010596B8010E94B1
:10067000A4062985223008F47EC03989323010F46E
:10068000B8017CC08A859A8989278A87243011F02D
:10069000223031F4231709F06EC06FEA71E06EC0AA
:1006A000343039F41D861E861F86188A1C861B86E8
:1006B00004C0323021F484E08987B7015FC02B8504
:1006C0003C858B899C89281B390B3C872B87ED84C3
:1006D000FE840F851889AD88BE88CF88D88CEA142F
:1006E000FB040C051D0540F4EE0CFF1C001F111F40
:1006F000215030403C872B8720E030E040E050E044
:1007000080E090E0A0E0B0E460E070E0EA14FB0478
:100710000C051D0540F0282B392B4A2B5B2BEA18C2
:10072000FB080C091D09B695A79597958795EE0CC2
:10073000FF1C001F111F6F5F7F4F6F31710531F775
:10074000DA01C9018F779070A070B0708034910584
:10075000A105B10561F427FD0AC0E114F10401050A
:10076000110529F0205C3F4F4F4F5F4F20782D87B8
:100770003E874F87588BBE01675F7F4FCB010E943A
:10078000CF056896EAE00C94AC24A8E1B0E0EBEC6D
:10079000F3E00C94942469837A838B839C832D8368
:1007A0003E834F83588789E0E82EF12CEC0EFD1E26
:1007B000CE010196B7010E94A4068E010F5E1F4F65
:1007C000CE010596B8010E94A4068985823040F0CA
:1007D0008989823028F0C701B8010E941C0701C036
:1007E0008FEF6896E6E00C94B024A8E1B0E0EBEF60
:1007F000F3E00C94942469837A838B839C832D8308
:100800003E834F83588789E0E82EF12CEC0EFD1EC5
:10081000CE010196B7010E94A4068E010F5E1F4F04
:10082000CE010596B8010E94A4068985823040F069
:100830008989823028F0C701B8010E941C0701C0D5
:100840008FEF6896E6E00C94B024A8E1B0E0EBE20C
:10085000F4E00C94942469837A838B839C832D83A6
:100860003E834F83588789E0E82EF12CEC0EFD1E65
:10087000CE010196B7010E94A4068E010F5E1F4FA4
:10088000CE010596B8010E94A4068985823040F009
:100890008989823028F0C701B8010E941C0701C075
:1008A00081E06896E6E00C94B024A8E0B0E0EBE5C7
:1008B000F4E00C9491249B01AC0183E08983DA017C
:1008C000C9018827B7FD83959927AA27BB27B82E8A
:1008D000211531054105510519F482E089833AC09B
:1008E0008823A9F0203080E0380780E0480780E8BE
:1008F000580729F460E070E080E09FEC30C0EE24FF
:10090000FF248701E21AF30A040B150B02C07901D8
:100910008A018EE1C82ED12CDC82CB82ED82FE8250
:100920000F831887C801B7010E9480050197181628
:10093000190684F4082E04C0EE0CFF1C001F111FC2
:100940000A94D2F7ED82FE820F831887C81AD90A5B
:10095000DC82CB82BA82CE0101960E94CF05289616
:10096000E9E00C94AD24ACE0B0E0E9EBF4E00C94E9
:10097000982469837A838B839C83CE010196BE0180
:100980006B5F7F4F0E94A4068D81823061F18230BF
:1009900050F1843021F48E81882351F12EC02F81B3
:1009A000388537FD20C06E812F3131051CF066235C
:1009B000F9F023C08EE190E0821B930B29853A85E4
:1009C0004B855C8504C056954795379527958A9544
:1009D000D2F76623B1F050954095309521953F4F61
:1009E0004F4F5F4F0EC020E030E040E050E009C0C4
:1009F0002FEF3FEF4FEF5FE704C020E030E040E033
:100A000050E8B901CA012C96E2E00C94B424A8E0A5
:100A1000B0E0EDE0F5E00C9490247B018C016115D1
:100A200071058105910519F482E0898360C083E036
:100A300089838EE1C82ED12CDC82CB82ED82FE82AE
:100A40000F831887C801B7010E948005FC01319708
:100A5000F7FF3BC0222733272E1B3F0B57016801AE
:100A6000022E04C0D694C794B794A7940A94D2F7E0
:100A700040E050E060E070E081E090E0A0E0B0E0B5
:100A800004C0880F991FAA1FBB1F2A95D2F7019790
:100A9000A109B1098E219F21A023B1230097A105AF
:100AA000B10521F041E050E060E070E04A295B29A7
:100AB0006C297D294D835E836F8378878EE190E07A
:100AC0008E1B9F0B9C838B8312C0309781F00E2E60
:100AD00004C0EE0CFF1C001F111F0A94D2F7ED8218
:100AE000FE820F831887CE1ADF0ADC82CB821A823D
:100AF000CE0101960E94CF052896EAE00C94AC2422
:100B0000EF92FF920F931F937B018C0180E0E81618
:100B100080E0F80681E0080780E0180788F48FEF8E
:100B2000E816F1040105110531F028F088E090E0A5
:100B3000A0E0B0E017C080E090E0A0E0B0E012C01C
:100B400080E0E81680E0F80680E0080781E01807FA
:100B500028F088E190E0A0E0B0E004C080E190E0FF
:100B6000A0E0B0E020E230E040E050E0281B390B8C
:100B70004A0B5B0B04C016950795F794E7948A958A
:100B8000D2F7F701E954FE4F8081281B3109410952
:100B90005109C9011F910F91FF90EF900895DF92C5
:100BA000EF92FF920F931F93FC01E480F580068182
:100BB0001781D1808081823048F480E090E0A0E10C
:100BC000B0E0E82AF92A0A2B1B2BA5C0843009F4CF
:100BD0009FC0823021F4EE24FF24870105C0E11478
:100BE000F1040105110519F4E0E0F0E096C062811E
:100BF00073819FEF623879070CF05BC022E83FEF0A
:100C0000261B370B2A3131052CF020E030E040E084
:100C100050E02AC0B801A701022E04C0769567955E
:100C2000579547950A94D2F781E090E0A0E0B0E0B4
:100C300004C0880F991FAA1FBB1F2A95D2F70197DE
:100C4000A109B1098E219F21A023B1230097A105FD
:100C5000B10521F081E090E0A0E0B0E09A01AB01A5
:100C6000282B392B4A2B5B2BDA01C9018F77907027
:100C7000A070B07080349105A105B10539F427FF4B
:100C800009C0205C3F4F4F4F5F4F04C0215C3F4F76
:100C90004F4F5F4FE0E0F0E02030A0E03A07A0E0E7
:100CA0004A07A0E45A0710F0E1E0F0E079018A0178
:100CB00027C06038710564F5FB01E158FF4FD8018A
:100CC000C7018F779070A070B07080349105A10536
:100CD000B10539F4E7FE0DC080E490E0A0E0B0E09B
:100CE00004C08FE390E0A0E0B0E0E80EF91E0A1F18
:100CF0001B1F17FF05C016950795F794E7943196CB
:100D000087E016950795F794E7948A95D1F705C083
:100D1000EE24FF248701EFEFF0E06E2F6795662742
:100D20006795902F9F77D794DD24D7948E2F869543
:100D3000492F462B582F5D29B701CA011F910F91EA
:100D4000FF90EF90DF900895FC01DB01408151811D
:100D50002281622F6F7770E0221F2227221F93814A
:100D6000892F880F822B282F30E0991F9927991FF0
:100D700011969C93119721153105A9F5411551053F
:100D80006105710511F482E037C082E89FEF139688
:100D90009C938E9312979A01AB0167E0220F331F49
:100DA000441F551F6A95D1F783E08C930DC0220F25
:100DB000331F441F551F12968D919C9113970197D5
:100DC00013969C938E931297203080E0380780E032
:100DD000480780E4580758F314962D933D934D939C
:100DE0005C93179708952F3F310579F4411551050C
:100DF0006105710519F484E08C93089564FF03C0C4
:100E000081E08C9312C01C9210C02F573040139673
:100E10003C932E93129783E08C9387E0440F551FE9
:100E2000661F771F8A95D1F7706414964D935D9372
:100E30006D937C93179708951F93DC01FB019C91A0
:100E4000923008F447C08081823008F443C0943067
:100E500051F411961C91843099F58181682F70E0CE
:100E6000611B71093FC0843021F0923031F482302F
:100E7000B9F18181882389F12DC011961C911197B8
:100E80008230F1F081811817D9F412962D913C919E
:100E90001397828193818217930794F0281739075B
:100EA000BCF014968D919D910D90BC91A02D248144
:100EB000358146815781281739074A075B0718F49F
:100EC000112341F00AC082179307A407B50740F425
:100ED000112319F061E070E005C06FEF7FEF02C0F1
:100EE00060E070E0CB011F910895DF93CF93CDB701
:100EF000DEB7A7E2B0E0E7E2F0E0808180648C93A7
:100F0000A7E2B0E0E7E2F0E0808180688C93A7E29E
:100F1000B0E0E7E2F0E080818F7D8C930E940108D1
:100F2000A6E2B0E0E6E2F0E0808180688C93CF91A9
:100F3000DF910895DF93CF930F92CDB7DEB789830A
:100F4000A7E2B0E0E7E2F0E08081887F8C938981BE
:100F500087708983A7E2B0E0E7E2F0E090818981C1
:100F6000892B8C930F90CF91DF910895DF93CF93CE
:100F7000CDB7DEB7A6E2B0E0E6E2F0E080818064C3
:100F80008C93CF91DF910895DF93CF93CDB7DEB7E8
:100F9000E4E2F0E080819181CF91DF910895DF93C9
:100FA000CF93CDB7DEB7A6E2B0E0E6E2F0E0808115
:100FB00088608C93CF91DF910895DF93CF9300D019
:100FC000CDB7DEB7E6E2F0E0808182958F70882FA2
:100FD00090E0817090700097A9F3E4E2F0E08081E6
:100FE00091819A838983A6E2B0E0E6E2F0E0808115
:100FF00080618C9389819A810F900F90CF91DF91BE
:101000000895DF93CF93CDB7DEB7A6E2B0E0E6E276
:10101000F0E0808181608C93A6E2B0E0E6E2F0E04F
:10102000808182608C93A6E2B0E0E6E2F0E080810D
:1010300084608C93CF91DF910895DF93CF9300D09C
:10104000CDB7DEB79A83898389819A8190931B03F8
:1010500080931A030F900F90CF91DF910895DF9343
:10106000CF9300D000D0CDB7DEB79A83898380912B
:101070001A0390911B03009729F0E0911A03F09155
:101080001B0309950F900F900F900F90CF91DF9158
:101090000895DF93CF930F92CDB7DEB7898389810F
:1010A00088232CF0E2E2F0E08981880F8083E0E27F
:1010B000F0E08CE08083A1E2B0E0E1E2F0E080814A
:1010C0008E7F8C93A1E2B0E0E1E2F0E080818D7F41
:1010D0008C93A6E5B0E0E6E5F0E0808180648C9337
:1010E000A6E5B0E0E6E5F0E0808184608C930F90A7
:1010F000CF91DF910895DF93CF93CDB7DEB7A6E50B
:10110000B0E0E6E5F0E0808180628C93A6E5B0E097
:10111000E6E5F0E0808180688C93E6E5F0E0808190
:101120008823DCF7E1E2F0E08081882F90E0887F7F
:10113000907088309105B1F7CF91DF910895DF93DA
:10114000CF93CDB7DEB7A6E5B0E0E6E5F0E080816D
:1011500080628C93A6E5B0E0E6E5F0E080818068EF
:101160008C93E6E5F0E080818823DCF7E1E2F0E0B3
:101170008081882F90E0887F907080319105B1F751
:10118000CF91DF910895DF93CF93CDB7DEB7A6E57A
:10119000B0E0E6E5F0E0808180618C93A6E5B0E008
:1011A000E6E5F0E0808180688C93CF91DF9108952F
:1011B000DF93CF930F92CDB7DEB7898389818823E0
:1011C0004CF1E3E2F0E08981880F8083A3E2B0E094
:1011D000E3E2F0E080818E7F8C93A6E5B0E0E6E567
:1011E000F0E080818F7D8C93A6E5B0E0E6E5F0E04D
:1011F000808180688C93E6E5F0E080818823DCF7CD
:10120000E1E2F0E08081882F90E0887F9070883163
:101210009105B1F70F90CF91DF910895DF93CF93B0
:101220000F92CDB7DEB78983898188234CF1E3E241
:10123000F0E08981880F8083A3E2B0E0E3E2F0E090
:10124000808181608C93A6E5B0E0E6E5F0E08081E6
:101250008F7D8C93A6E5B0E0E6E5F0E080818068C4
:101260008C93E6E5F0E080818823DCF7E1E2F0E0B2
:101270008081882F90E0887F907080349105B1F74D
:101280000F90CF91DF910895DF93CF930F92CDB759
:10129000DEB78983E3E2F0E089818083A6E5B0E0F0
:1012A000E6E5F0E0808180688C93E6E5F0E08081FF
:1012B0008823DCF7E1E2F0E08081882F90E0887FEE
:1012C000907088329105B1F70F90CF91DF9108951A
:1012D000DF93CF9300D0CDB7DEB79A83898389811E
:1012E0009A810097E1F0A6E5B0E0E6E5F0E08081C4
:1012F00080688C93E6E5F0E080818823DCF7E1E20A
:10130000F0E08081882F90E0887F90708035910593
:10131000B1F7E3E2F0E08081E981FA8180830F9008
:101320000F90CF91DF910895DF93CF93CDB7DEB7C4
:1013300029970FB6F894DEBF0FBECDBF80E895E2C7
:10134000A0E0B0E08E839F83A887B98780E8898377
:1013500089818F7B8983ABE2B0E0EBE2F0E08081B2
:101360008D7F8C938E819F81A885B985880F991F69
:10137000AA1FBB1F880F991FAA1FBB1F880F991F89
:10138000AA1FBB1F880F991FAA1FBB1F9C01AD017D
:1013900080E092E1AAE7B0E0BC01CD010E944B24BD
:1013A000DA01C9010197A109B1098A839B83AC8342
:1013B000BD8389818F7E89838981806289838981C8
:1013C00084608983898182608983E0E4F0E08A8196
:1013D0009B81AC81BD81892F9A2FAB2FBB27808346
:1013E000E9E2F0E08A818083AAE2B0E0EAE2F0E09C
:1013F000808188608C93AAE2B0E0EAE2F0E080812C
:1014000080618C93E0E4F0E08981808329960FB6B7
:10141000F894DEBF0FBECDBFCF91DF910895DF936B
:10142000CF93CDB7DEB7EBE2F0E080818823DCF725
:10143000ECE2F0E08081882F90E0CF91DF91089579
:10144000DF93CF930F92CDB7DEB78983EBE2F0E065
:101450008081829586958770882F90E0817090704A
:101460000097A1F3ECE2F0E0898180830F90CF91A7
:10147000DF910895DF93CF9300D00F92CDB7DEB701
:101480009B838A8319820EC08981282F30E08A814C
:101490009B81FC01E20FF31F80810E94200A898159
:1014A0008F5F89838981282F30E08A819B81FC01AD
:1014B000E20FF31F8081882339F70F900F900F9070
:1014C000CF91DF9108950F931F93DF93CF9300D0B7
:1014D0000F92CDB7DEB79B838A8319828981282F2B
:1014E00030E08A819B818C01020F131F0E940F0A3A
:1014F000F80180830FC089818F5F89838981282FBC
:1015000030E08A819B818C01020F131F0E940F0A19
:10151000F80180838981282F30E08A819B81FC013A
:10152000E20FF31F80818D3031F789818F5F8983CE
:101530008981282F30E08A819B81FC01E20FF31F13
:1015400010820F900F900F90CF91DF911F910F910C
:101550000895DF93CF9300D000D0CDB7DEB7898355
:101560006A838981869586958695282F30E03C830D
:101570002B838B819C818130910509F449C02B819B
:101580003C81223031052CF48B819C81009771F0D5
:10159000D4C02B813C812230310509F46BC08B8192
:1015A0009C818330910509F497C0C7C08A8181303E
:1015B000B9F4ABE3B0E0EBE3F0E08081482F898140
:1015C000882F90E09C012770307081E090E0022E1F
:1015D00002C0880F991F0A94E2F7842B8C93ADC048
:1015E000ABE3B0E0EBE3F0E08081482F8981882F06
:1015F00090E09C012770307081E090E0022E02C0E4
:10160000880F991F0A94E2F7809584238C9395C0E4
:101610008A818130B9F4A8E3B0E0E8E3F0E08081AA
:10162000482F8981882F90E09C012770307081E0DD
:1016300090E0022E02C0880F991F0A94E2F7842BD3
:101640008C937BC0A8E3B0E0E8E3F0E08081482F12
:101650008981882F90E09C012770307081E090E0B4
:10166000022E02C0880F991F0A94E2F78095842306
:101670008C9363C08A818130B9F4A5E3B0E0E5E3DF
:10168000F0E08081482F8981882F90E09C012770AD
:10169000307081E090E0022E02C0880F991F0A94FA
:1016A000E2F7842B8C9349C0A5E3B0E0E5E3F0E0DA
:1016B0008081482F8981882F90E09C0127703070AD
:1016C00081E090E0022E02C0880F991F0A94E2F791
:1016D000809584238C9331C08A818130B9F4A2E350
:1016E000B0E0E2E3F0E08081482F8981882F90E02C
:1016F0009C012770307081E090E0022E02C0880FBC
:10170000991F0A94E2F7842B8C9317C0A2E3B0E0F0
:10171000E2E3F0E08081482F8981882F90E09C01EE
:101720002770307081E090E0022E02C0880F991F70
:101730000A94E2F7809584238C930F900F900F907A
:101740000F90CF91DF910895DF93CF9300D000D019
:101750000F92CDB7DEB78983898186958695869568
:10176000282F30E03C832B834B815C814130510535
:1017700061F18B819C818230910534F42B813C8115
:101780002115310569F060C04B815C814230510503
:1017900089F18B819C818330910509F440C054C04C
:1017A000E9E3F0E08081282F30E08981882F90E004
:1017B00087709070A90102C0559547958A95E2F708
:1017C000CA01582F51705A8340C0E6E3F0E080818F
:1017D000282F30E08981882F90E087709070A901D0
:1017E00002C0559547958A95E2F7CA01582F517066
:1017F0005A832BC0E3E3F0E08081282F30E0898119
:10180000882F90E087709070A90102C05595479588
:101810008A95E2F7CA01582F51705A8316C0E0E347
:10182000F0E08081282F30E08981882F90E0877058
:101830009070A90102C0559547958A95E2F7CA01B3
:10184000582F51705A8301C002C08A818D838D81C7
:101850000F900F900F900F900F90CF91DF91089500
:10186000DF93CF9300D000D0CDB7DEB789836A83F2
:101870008981869586958695282F30E03C832B8339
:101880008B819C818130910509F449C02B813C8179
:10189000223031052CF48B819C81009771F0D4C0EB
:1018A0002B813C812230310509F46BC08B819C81F6
:1018B0008330910509F497C0C7C08A818130B9F49B
:1018C000ABE3B0E0EBE3F0E08081482F8981882F23
:1018D00090E09C012770307081E090E0022E02C001
:1018E000880F991F0A94E2F7842B8C93ADC0ABE369
:1018F000B0E0EBE3F0E08081482F8981882F90E011
:101900009C012770307081E090E0022E02C0880FA9
:10191000991F0A94E2F7809584238C9395C08A815D
:101920008130B9F4A8E3B0E0E8E3F0E08081482F2B
:101930008981882F90E09C012770307081E090E0D1
:10194000022E02C0880F991F0A94E2F7842B8C9311
:101950007BC0A8E3B0E0E8E3F0E08081482F898114
:10196000882F90E09C012770307081E090E0022E7B
:1019700002C0880F991F0A94E2F7809584238C9304
:1019800063C08A818130B9F4A5E3B0E0E5E3F0E01B
:101990008081482F8981882F90E09C0127703070CA
:1019A00081E090E0022E02C0880F991F0A94E2F7AE
:1019B000842B8C9349C0A5E3B0E0E5E3F0E080819F
:1019C000482F8981882F90E09C012770307081E03A
:1019D00090E0022E02C0880F991F0A94E2F78095CA
:1019E00084238C9331C08A818130B9F4A2E3B0E0C2
:1019F000E2E3F0E08081482F8981882F90E09C010C
:101A00002770307081E090E0022E02C0880F991F8D
:101A10000A94E2F7842B8C9317C0A2E3B0E0E2E3D0
:101A2000F0E08081482F8981882F90E09C01277009
:101A3000307081E090E0022E02C0880F991F0A9456
:101A4000E2F7809584238C930F900F900F900F9066
:101A5000CF91DF910895DF93CF9300D00F92CDB750
:101A6000DEB789838981869586958695282F30E013
:101A70003B832A838A819B818130910569F12A8188
:101A80003B81223031052CF48A819B81009769F0DB
:101A900067C02A813B8122303105A9F18A819B816F
:101AA0008330910509F446C05BC0ABE3B0E0EBE3E3
:101AB000F0E08081482F8981882F90E09C01277079
:101AC000307081E090E0022E02C0880F991F0A94C6
:101AD000E2F784278C9344C0A8E3B0E0E8E3F0E0A9
:101AE0008081482F8981882F90E09C012770307079
:101AF00081E090E0022E02C0880F991F0A94E2F75D
:101B000084278C932DC0A5E3B0E0E5E3F0E080816D
:101B1000482F8981882F90E09C012770307081E0E8
:101B200090E0022E02C0880F991F0A94E2F78427E2
:101B30008C9316C0A2E3B0E0E2E3F0E08081482F8E
:101B40008981882F90E09C012770307081E090E0BF
:101B5000022E02C0880F991F0A94E2F784278C9303
:101B60000F900F900F90CF91DF910895DF93CF9357
:101B700000D000D0CDB7DEB71A82198258C12981B2
:101B80003A81C901880F991F820F931FFC01E95404
:101B9000FD4F8081282F30E03C832B838B819C81FB
:101BA0008130910509F461C02B813C8122303105DF
:101BB0002CF48B819C81009771F034C12B813C8186
:101BC0002230310509F49BC08B819C8183309105C3
:101BD00009F4DFC027C129813A81C901880F991F03
:101BE000820F931FFC01E754FD4F80818130F1F497
:101BF000AAE3B0E0EAE3F0E08081482F29813A814E
:101C0000C901880F991F820F931FFC01E854FD4FF3
:101C10008081282F30E081E090E0022E02C0880F02
:101C2000991F0A94E2F7842B8C93FCC0AAE3B0E0DE
:101C3000EAE3F0E08081482F29813A81C901880FC9
:101C4000991F820F931FFC01E854FD4F8081282FBC
:101C500030E081E090E0022E02C0880F991F0A94C4
:101C6000E2F7809584238C93DDC029813A81C901F4
:101C7000880F991F820F931FFC01E754FD4F80814D
:101C80008130F1F4A7E3B0E0E7E3F0E08081482F92
:101C900029813A81C901880F991F820F931FFC0186
:101CA000E854FD4F8081282F30E081E090E0022E43
:101CB00002C0880F991F0A94E2F7842B8C93B2C05C
:101CC000A7E3B0E0E7E3F0E08081482F29813A8183
:101CD000C901880F991F820F931FFC01E854FD4F23
:101CE0008081282F30E081E090E0022E02C0880F32
:101CF000991F0A94E2F7809584238C9393C02981DD
:101D00003A81C901880F991F820F931FFC01E75484
:101D1000FD4F80818130F1F4A4E3B0E0E4E3F0E032
:101D20008081482F29813A81C901880F991F820F2C
:101D3000931FFC01E854FD4F8081282F30E081E0A3
:101D400090E0022E02C0880F991F0A94E2F7842BBC
:101D50008C9368C0A4E3B0E0E4E3F0E08081482F16
:101D600029813A81C901880F991F820F931FFC01B5
:101D7000E854FD4F8081282F30E081E090E0022E72
:101D800002C0880F991F0A94E2F7809584238C93F0
:101D900049C029813A81C901880F991F820F931F79
:101DA000FC01E754FD4F80818130F1F4A1E3B0E004
:101DB000E1E3F0E08081482F29813A81C901880F51
:101DC000991F820F931FFC01E854FD4F8081282F3B
:101DD00030E081E090E0022E02C0880F991F0A9443
:101DE000E2F7842B8C931EC0A1E3B0E0E1E3F0E0C6
:101DF0008081482F29813A81C901880F991F820F5C
:101E0000931FFC01E854FD4F8081282F30E081E0D2
:101E100090E0022E02C0880F991F0A94E2F7809585
:101E200084238C9389819A8101969A8389838981FD
:101E30009A818B31910508F4A2CE0F900F900F90EC
:101E40000F90CF91DF910895DF93CF93CDB7DEB799
:101E5000AFE5B0E0EFE5F0E0808180688C93CF9152
:101E6000DF910895DF93CF93CDB7DEB7AFE5B0E054
:101E7000EFE5F0E080818F778C93CF91DF9108952B
:101E8000DF93CF93CDB7DEB7A3E5B0E0E3E5F0E0B5
:101E9000808180648C93A3E5B0E0E3E5F0E080818D
:101EA00088608C93A3E5B0E0E3E5F0E08081806199
:101EB0008C93A3E5B0E0E3E5F0E0808180628C9351
:101EC0000E94F40FE2E5F0E01082CF91DF910895D7
:101ED000DF93CF93CDB7DEB7E8E5F0E08081882FC0
:101EE00090E0817090700097B9F3E2E5F0E0108225
:101EF000E8E5F0E081E08083CF91DF910895DF9302
:101F0000CF93CDB7DEB7CF91DF910895DF93CF9315
:101F10000F92CDB7DEB78983E2E5F0E08981808357
:101F20000F90CF91DF910895DF93CF93CDB7DEB7B8
:101F3000E3E5F0E01082CF91DF910895DF93CF9336
:101F40000F92CDB7DEB78983ECE5F0E0898180831D
:101F50000F90CF91DF910895DF93CF930F92CDB77C
:101F6000DEB789838981853690F48981282F30E016
:101F700084E690E0821B930B982F882724E630E0BC
:101F8000B9010E943824CB0181500E949E0F0F900E
:101F9000CF91DF910895DF93CF930F92CDB7DEB746
:101FA000898389818536E0F48981282F30E084E6B1
:101FB00090E0AC01421B530B9A018EEF91E0AC0113
:101FC000249FC001259F900D349F900D112428EC73
:101FD00030E0B9010E943824CB0181500E949E0F4D
:101FE0000F90CF91DF910895DF93CF93CDB7DEB7F8
:101FF000A3E5B0E0E3E5F0E0808181608C93A3E5A8
:10200000B0E0E3E5F0E080818D7F8C93A3E5B0E064
:10201000E3E5F0E0808184608C93CF91DF910895B7
:10202000DF93CF9300D0CDB7DEB79A8389838981C0
:102030009A8190931D0380931C030F900F90CF9172
:10204000DF9108951F920F920FB60F9211242F93D4
:102050003F934F935F936F937F938F939F93AF9330
:10206000BF93EF93FF93DF93CF93CDB7DEB780910C
:102070001C0390911D03009729F0E0911C03F0913F
:102080001D030995CF91DF91FF91EF91BF91AF9122
:102090009F918F917F916F915F914F913F912F9180
:1020A0000F900FBE0F901F9018951F920F920FB6B2
:1020B0000F9211242F933F934F935F936F937F93CE
:1020C0008F939F93AF93BF93EF93FF93DF93CF9340
:1020D000CDB7DEB780911C0390911D03009729F0C6
:1020E000E0911C03F0911D030995CF91DF91FF91C1
:1020F000EF91BF91AF919F918F917F916F915F9180
:102100004F913F912F910F900FBE0F901F901895F8
:10211000DF93CF93CDB7DEB7AFE4B0E0EFE4F0E00C
:1021200080818E7F8C93AFE4B0E0EFE4F0E08081BB
:1021300082608C93AEE4B0E0EEE4F0E080818860F1
:102140008C93AEE4B0E0EEE4F0E0808180618C93AB
:10215000AFE4B0E0EFE4F0E0808180688C93AFE41E
:10216000B0E0EFE4F0E080818F7B8C93CF91DF9142
:102170000895DF93CF9300D0CDB7DEB79A838983DC
:10218000ECE4F0E089819A81918380830E94401180
:102190000F900F90CF91DF910895DF93CF93CDB73C
:1021A000DEB7EFE4F0E01082EEE4F0E01082CF91D1
:1021B000DF910895DF93CF9300D0CDB7DEB79A8338
:1021C0008983EAE4F0E089819A81918380830F908A
:1021D0000F90CF91DF910895DF93CF9300D0CDB7CB
:1021E000DEB79A838983E8E4F0E089819A8191835C
:1021F00080830F900F90CF91DF910895DF93CF935D
:1022000000D000D0CDB7DEB78B836C838C81282FB4
:1022100030E040E050E080E990EDA3E0B0E0BC01A8
:10222000CD010E946D24DA01C90101979A83898347
:10223000E6E4F0E089819A8191838083EAE4F0E02A
:1022400089819A819C012F5F3F4F8B81882F90E07D
:10225000AC01249FC001259F900D349F900D112447
:1022600024E630E0B9010E942424CB010197918338
:1022700080830F900F900F900F90CF91DF91089572
:10228000DF93CF93CDB7DEB7AEE4B0E0EEE4F0E09D
:10229000808181608C93AEE4B0E0EEE4F0E0808178
:1022A00082608C93AEE4B0E0EEE4F0E080818B7F5E
:1022B0008C93CF91DF910895DF93CF93CDB7DEB7A5
:1022C0000E94400FCF91DF910895DF93CF930F923B
:1022D000CDB7DEB789838EE061E00E94A90A8981CB
:1022E000813029F48DE061E00E94A90A07C089814C
:1022F000823021F48DE060E00E94A90A0F90CF9116
:10230000DF910895DF93CF930F92CDB7DEB7898326
:1023100089810E94AC0F0F90CF91DF910895DF93D8
:10232000CF93CDB7DEB78EE060E00E94A90ACF91CF
:10233000DF910895DF93CF93CDB7DEB781E00E94A0
:102340004908CF91DF910895DF93CF93CDB7DEB7E2
:1023500061970FB6F894DEBF0FBECDBF988B8F8705
:10236000698B0E947B088F859889892F99278065C2
:102370000E94D8088F850E94440989890E944409D7
:102380000E94C30880E090E0A0EAB0E48B879C87BD
:10239000AD87BE876B857C858D859E8520E030E08E
:1023A0004AE755E40E941F02DC01CB018F83988726
:1023B000A987BA876F81788589859A8520E030E082
:1023C00040E85FE30E94250488232CF481E090E03C
:1023D0009E838D833FC06F81788589859A8520E0B3
:1023E0003FEF4FE757E40E94C50318164CF56B8585
:1023F0007C858D859E8520E030E040E251E40E949E
:102400001F02DC01CB01BC01CD010E944900DC01AF
:10241000CB019E838D830FC080E991E09C838B83E9
:102420008B819C810197F1F79C838B838D819E81A9
:1024300001979E838D838D819E81009769F714C0DB
:102440006F81788589859A850E944900DC01CB01DE
:102450009E838D838D819E819A83898389819A81D0
:102460000197F1F79A83898361960FB6F894DEBFDE
:102470000FBECDBFCF91DF910895DF93CF93CDB73E
:10248000DEB761970FB6F894DEBF0FBECDBF998B54
:10249000888B0E947B0888899989892F9927806574
:1024A0000E94D80888890E9444090E949F08888950
:1024B0009989892F992780650E940E09CE010F9670
:1024C0000E9468090E94C30880E090E0A0EAB0E49E
:1024D0008B879C87AD87BE876B857C858D859E8528
:1024E00020E030E04AE755E40E941F02DC01CB0106
:1024F0008F839887A987BA876F81788589859A8520
:1025000020E030E040E85FE30E94250488232CF4BB
:1025100081E090E09E838D833FC06F8178858985BF
:102520009A8520E03FEF4FE757E40E94C503181655
:102530004CF56B857C858D859E8520E030E040E202
:1025400051E40E941F02DC01CB01BC01CD010E94BD
:102550004900DC01CB019E838D830FC080E991E0AF
:102560009C838B838B819C810197F1F79C838B8368
:102570008D819E8101979E838D838D819E810097A1
:1025800069F714C06F81788589859A850E94490012
:10259000DC01CB019E838D838D819E819A8389830B
:1025A00089819A810197F1F79A8389838F85619652
:1025B0000FB6F894DEBF0FBECDBFCF91DF91089567
:1025C000DF93CF9300D000D00F92CDB7DEB79B83BF
:1025D0008A837D836C830E947B088A819B81892FFB
:1025E000992780650E94D8088A810E94440919822F
:1025F0000EC08981282F30E08C819D81FC01E20F83
:10260000F31F80810E94440989818F5F89838981BA
:10261000282F30E08C819D81FC01E20FF31F808127
:10262000882319F08981863020F38981282F30E0B2
:102630008C819D81FC01E20FF31F80810E9444097F
:102640000E94C3080F900F900F900F900F90CF91A2
:10265000DF910895DF93CF93CDB7DEB763970FB6C1
:10266000F894DEBF0FBECDBF998B888B7B8B6A8BB6
:102670000E947B0888899989892F992780650E9403
:10268000D80888890E9444090E949F0888899989EE
:10269000892F992780650E940E091F860CC08F859F
:1026A000282F30E08A899B89820F931F0E94680936
:1026B0008F858F5F8F878F85282F30E08A899B8950
:1026C000FC01E20FF31F8081882319F08F8586308B
:1026D00030F38F85282F30E08A899B89820F931FE2
:1026E0000E9468090E94C30880E090E0A0EAB0E47C
:1026F0008B879C87AD87BE876B857C858D859E8506
:1027000020E030E04AE755E40E941F02DC01CB01E3
:102710008F839887A987BA876F81788589859A85FD
:1027200020E030E040E85FE30E94250488232CF499
:1027300081E090E09E838D833FC06F81788589859D
:102740009A8520E03FEF4FE757E40E94C503181633
:102750004CF56B857C858D859E8520E030E040E2E0
:1027600051E40E941F02DC01CB01BC01CD010E949B
:102770004900DC01CB019E838D830FC080E991E08D
:102780009C838B838B819C810197F1F79C838B8346
:102790008D819E8101979E838D838D819E8100977F
:1027A00069F714C06F81788589859A850E944900F0
:1027B000DC01CB019E838D838D819E819A838983E9
:1027C00089819A810197F1F79A83898363960FB67D
:1027D000F894DEBF0FBECDBFCF91DF910895DF9398
:1027E000CF93CDB7DEB78FE061E00E94A90ACF9109
:1027F000DF910895DF93CF93CDB7DEB78FE060E030
:102800000E94A90ACF91DF910895DF93CF93CDB7AE
:10281000DEB784E061E00E94A90ACF91DF910895BC
:10282000DF93CF93CDB7DEB784E060E00E94A90AC2
:10283000CF91DF910895DF93CF93CDB7DEB785E0D9
:1028400061E00E94A90ACF91DF910895DF93CF93B1
:10285000CDB7DEB785E060E00E94A90ACF91DF9195
:102860000895DF93CF93CDB7DEB786E061E00E9495
:10287000A90ACF91DF910895DF93CF93CDB7DEB74B
:1028800086E060E00E94A90ACF91DF910895DF936E
:10289000CF93CDB7DEB786E161E00E94A90ACF9160
:1028A000DF910895DF93CF93CDB7DEB786E160E087
:1028B0000E94A90ACF91DF910895DF93CF93CDB7FE
:1028C000DEB78FE161E00E94300C8EE161E00E9492
:1028D000300C8CE161E00E94300C8BE161E00E94E1
:1028E000300CCF91DF910895DF93CF93CDB7DEB752
:1028F000A0970FB6F894DEBF0FBECDBF85E18B83E6
:1029000084E18C8383E18D8382E18E838FE18F83E9
:102910008EE188878CE189878BE18A87CE010B96CF
:102920009D8F8C8FEAE0F3E0FF8FEE8FF0E1F8A34C
:10293000EE8DFF8D00808E8D9F8D01969F8F8E8FE7
:10294000EC8DFD8D00828C8D9D8D01969D8F8C8FE1
:1029500098A1915098A3E8A1EE2351F71A825FC085
:102960008A81282F30E0CE010396FC01E20FF31F8D
:10297000808160E00E94A90A19823EC08981282FC7
:1029800030E0CE010796FC01E20FF31F80810E9428
:10299000A40B882371F58981282F30E0CE0107969A
:1029A000FC01E20FF31F80810E94A40B882399F39E
:1029B0008A81282F30E0CE010396FC01E20FF31F3D
:1029C000808161E00E94A90A8A81282F30E08981F4
:1029D000482F50E0220F331F220F331FCE010196E4
:1029E000820F931F840F951FFC013A9680818B8F75
:1029F0001CC089818F5F89838981843008F4BECFB0
:102A00008A81282F30E0CE010396FC01E20FF31FEC
:102A1000808161E00E94A90A8A818F5F8A838A810E
:102A2000843008F49DCF9FEF9B8F8B8DA0960FB6BF
:102A3000F894DEBF0FBECDBFCF91DF9108950F9305
:102A40001F93DF93CF93CDB7DEB7CC54D0400FB6F2
:102A5000F894DEBF0FBECDBFFE01E75BFF4F80E005
:102A600090E0A4E3B2E480839183A283B3838E01D8
:102A70000B5B1F4FFE01E75BFF4F6081718182811D
:102A8000938120E030E04AE755E40E941F02DC0118
:102A9000CB01F80180839183A283B383FE01EB5BBA
:102AA000FF4F608171818281938120E030E040E8B6
:102AB0005FE30E942504882344F4FE01ED5BFF4F91
:102AC00081E090E09183808364C0FE01EB5BFF4F67
:102AD000608171818281938120E03FEF4FE757E46D
:102AE0000E94C50318160CF043C0FE01E75BFF4FC0
:102AF000608171818281938120E030E040E251E485
:102B00000E941F02DC01CB018E010D5B1F4FBC0137
:102B1000CD010E944900DC01CB01F8019183808343
:102B20001FC0FE01EF5BFF4F80E991E0918380833E
:102B3000FE01EF5BFF4F808191810197F1F7FE016C
:102B4000EF5BFF4F91838083DE01AD5BBF4FFE01E2
:102B5000ED5BFF4F80819181019711969C938E933D
:102B6000FE01ED5BFF4F808191810097D1F624C07B
:102B70008E010D5B1F4FFE01EB5BFF4F608171818A
:102B8000828193810E944900DC01CB01F80191838D
:102B90008083FE01ED5BFF4F80819181FE01FF96F6
:102BA00091838083FE01FF96808191810197F1F7E7
:102BB000FE01FF969183808383E060E00E94A90A72
:102BC0000E94671982E00E9417190E94671988E223
:102BD0000E94ED1780E090E0A4E3B2E48BAF9CAFDD
:102BE000ADAFBEAF6BAD7CAD8DAD9EAD2BEA3AEA1D
:102BF0004AEA50E40E941F02DC01CB018FAB98AF80
:102C0000A9AFBAAF6FA978AD89AD9AAD20E030E039
:102C100040E85FE30E94250488231CF481E08EAB2A
:102C200091C06FA978AD89AD9AAD20E030E04FE753
:102C300053E40E94C50318160CF07BC06BAD7CAD4D
:102C40008DAD9EAD20E030E04AE754E40E941903C8
:102C5000DC01CB018AAB9BABACABBDAB6AA97BA95A
:102C60008CA99DA920E030E04AE755E40E941F02AC
:102C7000DC01CB018EA79FA7A8ABB9AB6EA57FA542
:102C800088A999A920E030E040E85FE30E9425048C
:102C900088232CF481E090E09DA78CA73FC06EA50F
:102CA0007FA588A999A920E03FEF4FE757E40E944C
:102CB000C50318164CF56AA97BA98CA99DA920E02B
:102CC00030E040E251E40E941F02DC01CB01BC0174
:102CD000CD010E944900DC01CB019DA78CA70FC04C
:102CE00080E991E09BA78AA78AA59BA50197F1F7A8
:102CF0009BA78AA78CA59DA501979DA78CA78CA5AE
:102D00009DA5009769F724C06EA57FA588A999A9FC
:102D10000E944900DC01CB019DA78CA78CA59DA535
:102D200099A788A788A599A50197F1F799A788A7DA
:102D30000FC06FA978AD89AD9AAD0E944900DC0142
:102D4000CB018EAB8EA98FA38FA18A95F1F78FA3AC
:102D50008FE00E94ED1780E090E0A4E3B2E48BA343
:102D60009CA3ADA3BEA36BA17CA18DA19EA12BEAC8
:102D70003AEA4AEA50E40E941F02DC01CB018F8F3D
:102D800098A3A9A3BAA36F8D78A189A19AA120E0E5
:102D900030E040E85FE30E94250488231CF481E0D2
:102DA0008E8F91C06F8D78A189A19AA120E030E02B
:102DB0004FE753E40E94C50318160CF07BC06BA1CB
:102DC0007CA18DA19EA120E030E04AE754E40E945E
:102DD0001903DC01CB018A8F9B8FAC8FBD8F6A8D6D
:102DE0007B8D8C8D9D8D20E030E04AE755E40E947C
:102DF0001F02DC01CB018E8B9F8BA88FB98F6E8950
:102E00007F89888D998D20E030E040E85FE30E9463
:102E1000250488232CF481E090E09D8B8C8B3FC0AF
:102E20006E897F89888D998D20E03FEF4FE757E4C9
:102E30000E94C50318164CF56A8D7B8D8C8D9D8D77
:102E400020E030E040E251E40E941F02DC01CB01AF
:102E5000BC01CD010E944900DC01CB019D8B8C8B14
:102E60000FC080E991E09B8B8A8B8A899B890197AF
:102E7000F1F79B8B8A8B8C899D8901979D8B8C8B1D
:102E80008C899D89009769F724C06E897F89888D18
:102E9000998D0E944900DC01CB019D8B8C8B8C8924
:102EA0009D89998B888B888999890197F1F7998BEE
:102EB000888B0FC06F8D78A189A19AA10E944900CB
:102EC000DC01CB018E8F8E8D8F878F858A95F1F7F0
:102ED0008F8781E00E94ED1780E090E0A0E0B0E4F1
:102EE0008B879C87AD87BE876B857C858D859E850E
:102EF00020E030E04AE755E40E941F02DC01CB01EC
:102F00008F839887A987BA876F81788589859A8505
:102F100020E030E040E85FE30E94250488232CF4A1
:102F200081E090E09E838D833FC06F8178858985A5
:102F30009A8520E03FEF4FE757E40E94C50318163B
:102F40004CF56B857C858D859E8520E030E040E2E8
:102F500051E40E941F02DC01CB01BC01CD010E94A3
:102F60004900DC01CB019E838D830FC080E991E095
:102F70009C838B838B819C810197F1F79C838B834E
:102F80008D819E8101979E838D838D819E81009787
:102F900069F714C06F81788589859A850E944900F8
:102FA000DC01CB019E838D838D819E819A838983F1
:102FB00089819A810197F1F79A83898386E00E943B
:102FC000ED17C45BDF4F0FB6F894DEBF0FBECDBF69
:102FD000CF91DF911F910F910895DF93CF930F92BF
:102FE000CDB7DEB7898383E060E00E94A90A8981BA
:102FF00082958F700E9417190E94671989810E941B
:1030000017190E9467190F90CF91DF910895DF93F0
:10301000CF930F92CDB7DEB7898383E061E00E9442
:10302000A90A898182958F700E9417190E946719D9
:1030300089810E9417190E9467190F90CF91DF9123
:103040000895DF93CF9300D00F92CDB7DEB79B8367
:103050008A8319820EC08981282F30E08A819B8162
:10306000FC01E20FF31F80810E94071889818F5FA6
:1030700089838981282F30E08A819B81FC01E20FBE
:10308000F31F8081882339F70F900F900F90CF9115
:10309000DF910895EF92FF920F931F93DF93CF93E9
:1030A000CDB7DEB728970FB6F894DEBF0FBECDBF01
:1030B0006D837E838F83988781E090E0A0E0B0E00D
:1030C00089839A83AB83BC838D819E81AF81B885D0
:1030D000BB230CF049C08DE20E9407188D819E81B0
:1030E000AF81B885B095A095909581959F4FAF4FD2
:1030F000BF4F8D839E83AF83B88736C089819A8105
:10310000AB81BC812AE030E040E050E0BC01CD0161
:103110000E94F9237B018C018D819E81AF81B8854E
:103120002AE030E040E050E0BC01CD010E946D2477
:10313000DC01CB018E0D9F1DA01FB11F89839A83D7
:10314000AB83BC838D819E81AF81B8852AE030E05E
:1031500040E050E0BC01CD010E946D24DA01C901BC
:103160008D839E83AF83B8878D819E81AF81B88523
:10317000181619061A061B060CF223C089819A81BB
:10318000AB81BC812AE030E040E050E0BC01CD01E1
:103190000E946D24DC01CB01805D0E9407188981AB
:1031A0009A81AB81BC812AE030E040E050E0BC0174
:1031B000CD010E946D24DA01C90189839A83AB8312
:1031C000BC8389819A81AB81BC8182309105A10544
:1031D000B105A4F628960FB6F894DEBF0FBECDBF9A
:1031E000CF91DF911F910F91FF90EF900895DF93A2
:1031F000CF9300D000D0CDB7DEB78B836C8380E84F
:10320000898380EC8A838B81282F30E0CE01019660
:10321000FC01E20FF31F90818C81890F0E94ED1752
:103220000F900F900F900F90CF91DF910895DF9343
:10323000CF930F92CDB7DEB789838981882F90E035
:1032400081709070882329F088E061E00E94A90ACB
:1032500004C088E060E00E94A90A89818695882FD1
:1032600090E081709070882329F089E061E00E94ED
:10327000A90A04C089E060E00E94A90A89818695B4
:103280008695882F90E081709070882329F08AE0DD
:1032900061E00E94A90A04C08AE060E00E94A90AD5
:1032A0008981869586958695882F90E081709070AB
:1032B000882329F08CE061E00E94A90A04C08CE018
:1032C00060E00E94A90A0F90CF91DF910895DF93EB
:1032D000CF93CDB7DEB72E970FB6F894DEBF0FBEF3
:1032E000CDBF82E061E00E94A90A80E090E0A0E802
:1032F000BFE38B879C87AD87BE876B857C858D857B
:103300009E8520E030E04AE755E40E941F02DC0180
:10331000CB018F839887A987BA876F817885898544
:103320009A8520E030E040E85FE30E94250488238E
:103330002CF481E090E09E838D833FC06F8178857F
:1033400089859A8520E03FEF4FE757E40E94C50347
:1033500018164CF56B857C858D859E8520E030E0C8
:1033600040E251E40E941F02DC01CB01BC01CD010F
:103370000E944900DC01CB019E838D830FC080E950
:1033800091E09C838B838B819C810197F1F79C83D7
:103390008B838D819E8101979E838D838D819E81FC
:1033A000009769F714C06F81788589859A850E9496
:1033B0004900DC01CB019E838D838D819E819A83A0
:1033C000898389819A810197F1F79A83898382E0C1
:1033D00060E00E94A90A2E960FB6F894DEBF0FBED9
:1033E000CDBFCF91DF910895DF93CF9300D0CDB7BC
:1033F000DEB78A830E9488108A81992787FD90957D
:10340000A92FB92FBC01CD010E945504DC01CB01CD
:10341000BC01CD0129E33EE843EE5CE30E941F02BC
:10342000DC01CB01BC01CD0120E030E040EF50E4F5
:103430000E94F201DC01CB01BC01CD010E944900D8
:10344000DC01CB018983898164E60E94FE1080E063
:1034500090E00E94B9100F900F90CF91DF910895E6
:10346000DF93CF93CDB7DEB70E94CD10CF91DF9120
:103470000895DF93CF93CDB7DEB7E8970FB6F894F2
:10348000DEBF0FBECDBF1C829E01275F3F4F3BA713
:103490002AA786EA90E09DA78CA79AE09EA7ACA5F4
:1034A000BDA50C90ECA5FDA53196FDA7ECA7AAA59E
:1034B000BBA50C92EAA5FBA53196FBA7EAA7FEA542
:1034C000F150FEA72EA5222351F7CE01439698ABCB
:1034D0008FA7A0EBB0E0BAABA9ABBAE0BBABE9A950
:1034E000FAA9008029A93AA92F5F3F4F3AAB29AB2F
:1034F000AFA5B8A90C92EFA5F8A93196F8ABEFA744
:10350000FBA9F150FBAB2BA9222349F7CE014D9625
:103510009DAB8CABADEBB0E0BFABAEABB7E0B8AF43
:10352000EEA9FFA900802EA93FA92F5F3F4F3FAB17
:103530002EABACA9BDA90C92ECA9FDA93196FDABAF
:10354000ECABF8ADF150F8AF28AD222349F783E09A
:10355000FE01B496DF01282F1D922A95E9F780E637
:1035600090E00E943A0ACE0109960E943A0ACE01E2
:1035700043960E943A0ACE014D960E943A0A0E9452
:103580000F0A8C838C81882F90E0DC01D097B8A73C
:10359000AFA3EFA1F8A5E230F105A1F12FA138A565
:1035A0002330310509F43DC08FA198A581309105E4
:1035B000E1F58BE690E00E943A0A04C00E940F0AEF
:1035C00080538A838A818823C9F38A81898380E82A
:1035D00090E00E943A0ACE0105960E94630ACE014D
:1035E00005960E943A0ACE0105960E94491B8B83DC
:1035F0008B810E94200A8981882F90E06B810E9434
:10360000A41113C086E990E00E943A0A0E940F0AB2
:10361000805389838981882F90E060E00E94A41103
:1036200004C08FEF89A789A500C0E8960FB6F8946B
:10363000DEBF0FBECDBFCF91DF910895DF93CF9353
:1036400000D000D0CDB7DEB78C838C8194E6692F93
:103650000E94182489838C819AE0692F0E94182483
:10366000982F8981292F281B822F8A8399818C8109
:10367000282F291B922F8A81292F281B822F8B8389
:10368000CE0101960F900F900F900F90CF91DF9188
:103690000895DF93CF9300D00F92CDB7DEB79B8311
:1036A0008A838A819B81FC01329640818A819B8139
:1036B000FC0131968081882F90E09C01220F331FFE
:1036C000C901880F991F880F991F820F931F480FF8
:1036D000EA81FB818081282F30E084E690E0BC0104
:1036E000269FC001279F900D369F900D1124840FB7
:1036F000805D898389810F900F900F90CF91DF912A
:1037000008950F931F93DF93CF93CDB7DEB7CA54BD
:10371000D0400FB6F894DEBF0FBECDBF0E94B60DED
:103720000E945D140E941F150E9494090E949A1124
:103730000E9475070E945C1187EC90E00E9421189E
:1037400081E060E00E94F71884ED90E00E9421186B
:103750000E947414FE01E85BFF4F8083FE01E85B6A
:10376000FF4F80818F3FF9F080912E038823D9F499
:1037700010923103FE01E85BFF4F8081813339F401
:1037800081E00E94ED1781E080932E030CC0FE01C2
:10379000E85BFF4F8081823331F481E00E94ED17B6
:1037A00085E680932E0380912E03813099F48091D9
:1037B0003103833078F482EE90E00E94211881E09A
:1037C00060E00E94F71882E080932E031092340389
:1037D0001092330380912E03823009F042C00E9480
:1037E0007414FE01E85BFF4F8083FE01E85BFF4F2E
:1037F00080818F3FB1F1FE01E85BFF4F80818D3307
:1038000051F1FE01E85BFF4F80810E940718809113
:103810003303909134039C01220F331FC901880F99
:10382000991F880F991F820F931F909334038093E1
:103830003303FE01E85BFF4F8081282F30E0809149
:10384000330390913403820F931FC09790933403F6
:103850008093330306C083E080932E0381E00E94AF
:10386000ED1780912E03833091F4809131038330E2
:1038700070F482EF90E00E94211881E060E00E94E5
:10388000F71884E080932E0310922F0397C0809145
:103890002E03833009F092C080913103833008F405
:1038A0008DC00E94FD22FE01ED5BFF4F80E090E0A5
:1038B000AAEFB4E480839183A283B3838E01015C79
:1038C0001F4FFE01ED5BFF4F60817181828193810B
:1038D00020E030E04AE755E40E941F02DC01CB0102
:1038E000F80180839183A283B383FE01FF966081F8
:1038F00071818281938120E030E040E85FE30E94A3
:10390000250488232CF481E090E09EAF8DAF46C063
:10391000FE01FF96608171818281938120E03FEFFB
:103920004FE757E40E94C503181664F5FE01ED5BEE
:10393000FF4F608171818281938120E030E040E21D
:1039400051E40E941F02DC01CB01BC01CD010E94A9
:103950004900DC01CB019EAF8DAF0FC080E991E043
:103960009CAF8BAF8BAD9CAD0197F1F79CAF8BAF4C
:103970008DAD9EAD01979EAF8DAF8DAD9EAD009785
:1039800069F716C0FE01FF96608171818281938183
:103990000E944900DC01CB019EAF8DAF8DAD9EAD85
:1039A0009AAF89AF89AD9AAD0197F1F79AAF89AF18
:1039B0000E9408231092310310922E0380912E034F
:1039C000843009F048C10E947414FE01E85BFF4F87
:1039D0008083FE01E85BFF4F80818F3F09F43BC18C
:1039E000FE01E85BFF4F80818D33F1F08AE20E9497
:1039F000071880912F03882F90E09C01220F331F1E
:103A0000C901880F991F880F991F820F931F8093F8
:103A10002F0390912F03FE01E85BFF4F8081890FF8
:103A2000805380932F0317C185E080932E038091EC
:103A300031038F5F8093310380912F03882F90E0B3
:103A4000A0E0B0E0BC01CD010E944A188091330390
:103A5000909134030E943D128093360390912F037E
:103A600080913603981709F07AC081E00E94ED1723
:103A700082E091E00E94211880E090E0AAE7B4E49F
:103A80008DAB9EABAFABB8AF6DA97EA98FA998AD3A
:103A900020E030E04AE755E40E941F02DC01CB0140
:103AA00089AB9AABABABBCAB69A97AA98BA99CA932
:103AB00020E030E040E85FE30E94250488232CF4F6
:103AC00081E090E098AB8FA73FC069A97AA98BA944
:103AD0009CA920E03FEF4FE757E40E94C50318166A
:103AE0004CF56DA97EA98FA998AD20E030E040E2A9
:103AF00051E40E941F02DC01CB01BC01CD010E94F8
:103B00004900DC01CB0198AB8FA70FC080E991E0A1
:103B10009EA78DA78DA59EA50197F1F79EA78DA7BE
:103B20008FA598A9019798AB8FA78FA598A9009703
:103B300069F791C069A97AA98BA99CA90E9449003B
:103B4000DC01CB0198AB8FA78FA598A99CA78BA769
:103B50008BA59CA50197F1F79CA78BA77CC080E162
:103B600091E00E94211880E090E0AAE7B4E48FA3DE
:103B700098A7A9A7BAA76FA178A589A59AA520E0BB
:103B800030E04AE755E40E941F02DC01CB018BA321
:103B90009CA3ADA3BEA36BA17CA18DA19EA120E09F
:103BA00030E040E85FE30E94250488232CF481E0A4
:103BB00090E09AA389A33FC06BA17CA18DA19EA197
:103BC00020E03FEF4FE757E40E94C50318164CF57D
:103BD0006FA178A589A59AA520E030E040E251E4E4
:103BE0000E941F02DC01CB01BC01CD010E944900F3
:103BF000DC01CB019AA389A30FC080E991E098A3CF
:103C00008F8F8F8D98A10197F1F798A38F8F89A13E
:103C10009AA101979AA389A389A19AA1009769F70C
:103C200014C06BA17CA18DA19EA10E944900DC0162
:103C3000CB019AA389A389A19AA19E8F8D8F8D8D87
:103C40009E8D0197F1F79E8F8D8F81E00E94ED1779
:103C500081E080932E0380912E03853091F481E0E2
:103C60000E94ED178FE191E00E94211881E060E051
:103C70000E94F7188EE291E00E94211886E080935E
:103C80002E0380912E038630F9F40E947414FE01F5
:103C9000E85BFF4F8083FE01E85BFF4F80818F3F31
:103CA00099F0FE01E85BFF4F8081813321F482E3CC
:103CB00080932E0309C0FE01E85BFF4F80818233B1
:103CC00019F487E080932E0380912E03873091F4BE
:103CD00081E00E94ED1786E391E00E94211881E0C7
:103CE00060E00E94F7188EE291E00E94211888E0BF
:103CF00080932E0380912E038830F9F40E9474146F
:103D0000FE01E85BFF4F8083FE01E85BFF4F80818F
:103D10008F3F99F0FE01E85BFF4F8081813321F4F2
:103D200085E380932E0309C0FE01E85BFF4F80818D
:103D3000823319F489E080932E0380912E03893019
:103D400091F481E00E94ED1785E491E00E94211832
:103D500081E060E00E94F7188EE291E00E94211855
:103D60008AE080932E0380912E038A30F9F40E941A
:103D70007414FE01E85BFF4F8083FE01E85BFF4F98
:103D800080818F3F99F0FE01E85BFF4F8081813396
:103D900021F489E380932E0309C0FE01E85BFF4F05
:103DA0008081823319F485E080932E0380E00E94A5
:103DB0009A070E94B6070E94DD07CC01A0E0B0E0A0
:103DC000BC01CD010E940705DC01CB01BC01CD0186
:103DD00020E030E040E85EE30E941F02DC01CB01FE
:103DE000BC01CD010E944900DC01CB01809332036C
:103DF0009091320380910903891738F481E00E9481
:103E0000651182E30E94821102C00E948F1180918D
:103E10002E03823381F481E00E94ED178DE491E05E
:103E20000E94211881E060E00E94F71810920903B7
:103E300083E380932E0380912E038333C9F50E9480
:103E40007414FE01E85BFF4F8083FE01E85BFF4FC7
:103E500080818F3F69F1FE01E85BFF4F80818D33E8
:103E600009F1FE01E85BFF4F80810E9407188091F5
:103E70000903882F90E09C01220F331FC901880F8E
:103E8000991F880F991F820F931F809309039091A8
:103E90000903FE01E85BFF4F8081890F8053809307
:103EA000090306C084E380932E0381E00E94ED178E
:103EB00080912E038433E9F4809109030E94132337
:103EC0000E947414FE01E85BFF4F8083FE01E85BF3
:103ED000FF4F80818D3221F485E080932E0309C04D
:103EE000FE01E85BFF4F8081833619F48FEF8093EA
:103EF0002E0380912E03853351F481E00E94ED174B
:103F000081E691E00E94211886E380932E03809140
:103F10002E03863339F50E94741480933503809103
:103F200035038F3FF9F080913503863340F480915B
:103F30003503813320F087E380932E0313C0FE0105
:103F4000E85BFF4F80818D3221F485E080932E0362
:103F500009C0FE01E85BFF4F8081833619F48FEFC3
:103F600080932E0380912E03873391F481E00E9489
:103F7000ED1781E791E00E94211881E060E00E9446
:103F8000F71887E791E00E94211888E380932E03B9
:103F900080912E03883309F0C5C0FE01E85BFF4F16
:103FA0008FEF80830E947414FE01E85BFF4F8083D3
:103FB000FE01E85BFF4F80818F3F09F4A0C0FE0146
:103FC000E85BFF4F8081813339F0FE01E85BFF4FF2
:103FD0008081823309F093C080913503282F30E02F
:103FE0002B963FAF2EAF2B972B968EAD9FAD2B9779
:103FF0008333910509F44DC02B96EEADFFAD2B97A1
:10400000E433F1057CF42B962EAD3FAD2B97213395
:104010003105C9F02B968EAD9FAD2B97823391055C
:1040200029F180C02B96EEADFFAD2B97E433F1055F
:1040300009F441C02B962EAD3FAD2B9725333105AA
:1040400009F44BC06FC0FE01E85BFF4F80818133F4
:1040500019F40E948F2266C0FE01E85BFF4F808149
:10406000823309F05FC00E949A225CC0FE01E85BC7
:10407000FF4F8081813319F40E94A52253C0FE01B5
:10408000E85BFF4F8081823309F04CC00E94B02270
:1040900049C0FE01E85BFF4F8081813319F40E9423
:1040A000BB2240C0FE01E85BFF4F80818233D1F527
:1040B0000E94C62237C0FE01E85BFF4F808181333A
:1040C00019F40E94D1222EC0FE01E85BFF4F8081CF
:1040D000823341F50E94DC2225C0FE01E85BFF4FE0
:1040E0008081813319F40E94E7221CC0FE01E85B45
:1040F000FF4F80818233B1F40E94F22213C0FE018F
:10410000E85BFF4F80818D3221F485E080932E03A0
:1041100009C0FE01E85BFF4F8081833619F48FEF01
:1041200080932E0380912E03893391F481E00E94C5
:10413000ED178EE791E00E94211881E060E00E9477
:10414000F71886E891E00E9421188AE380932E03F5
:1041500080912E038A3389F50E947414FE01E85B76
:10416000FF4F8083FE01E85BFF4F80818F3F29F185
:10417000FE01E85BFF4F8081813319F40E947B22AE
:104180001CC0FE01E85BFF4F8081823319F40E945E
:10419000852213C0FE01E85BFF4F8081833621F446
:1041A0008FEF80932E0309C0FE01E85BFF4F8081F3
:1041B0008D3219F485E080932E0380912E0385368D
:1041C00091F480913103833070F482EF90E00E948B
:1041D000211881E060E00E94F71886E680932E03A4
:1041E0001092300384C080912E03853609F07FC081
:1041F00080913103833008F47AC00E94FD2280E070
:1042000090E0AAEFB4E4898F9A8FAB8FBC8F698D51
:104210007A8D8B8D9C8D20E030E04AE755E40E943A
:104220001F02DC01CB018D8B9E8BAF8BB88F6D890C
:104230007E898F89988D20E030E040E85FE30E941E
:10424000250488232CF481E090E09C8B8B8B3FC06D
:104250006D897E898F89988D20E03FEF4FE757E485
:104260000E94C50318164CF5698D7A8D8B8D9C8D37
:1042700020E030E040E251E40E941F02DC01CB016B
:10428000BC01CD010E944900DC01CB019C8B8B8BD2
:104290000FC080E991E09A8B898B89899A8901976F
:1042A000F1F79A8B898B8B899C8901979C8B8B8BDF
:1042B0008B899C89009769F714C06D897E898F89E5
:1042C000988D0E944900DC01CB019C8B8B8B8B89E4
:1042D0009C89988B8F878F8598890197F1F7988BA8
:1042E0008F870E9408231092310310922E03809131
:1042F0002E03863609F0D0C00E947414FE01E85BDC
:10430000FF4F8083FE01E85BFF4F80818F3F09F400
:10431000C3C0FE01E85BFF4F80818D33F1F08AE27C
:104320000E94071880913003882F90E09C01220F93
:10433000331FC901880F991F880F991F820F931F80
:104340008093300390913003FE01E85BFF4F808142
:10435000890F8053809330039FC0809131038F5F1A
:104360008093310380913003882F90E0A0E0B0E08B
:10437000BC01CD010E944A1890913003809108033E
:10438000981759F481E00E94ED178FE891E00E94A0
:10439000211887E680932E037FC081E00E94ED17ED
:1043A00080E191E00E94211880E090E0AAE7B4E467
:1043B0008B879C87AD87BE876B857C858D859E8529
:1043C00020E030E04AE755E40E941F02DC01CB0107
:1043D0008F839887A987BA876F81788589859A8521
:1043E00020E030E040E85FE30E94250488232CF4BD
:1043F00081E090E09E838D833FC06F8178858985C1
:104400009A8520E03FEF4FE757E40E94C503181656
:104410004CF56B857C858D859E8520E030E040E203
:1044200051E40E941F02DC01CB01BC01CD010E94BE
:104430004900DC01CB019E838D830FC080E991E0B0
:104440009C838B838B819C810197F1F79C838B8369
:104450008D819E8101979E838D838D819E810097A2
:1044600069F714C06F81788589859A850E94490013
:10447000DC01CB019E838D838D819E819A8389830C
:1044800089819A810197F1F79A83898381E00E945B
:10449000ED1785E680932E0380912E038736A1F4D5
:1044A000FE01E95BFF4F108206C00E94391AFE012F
:1044B000E95BFF4F8083FE01E95BFF4F80818F3F07
:1044C000A1F78FEF80932E0380912E038F3F09F089
:1044D0003FC981E00E94ED1787EC90E00E9421180F
:1044E00081E060E00E94F71884ED90E00E942118BE
:1044F00010922E032DC9DF93CF93CDB7DEB784EB97
:104500000E94F419CF91DF910895DF93CF93CDB737
:10451000DEB78AE50E94F419CF91DF910895DF9309
:10452000CF93CDB7DEB781E061E00E94A90ACF91B9
:10453000DF910895DF93CF93CDB7DEB781E060E0E0
:104540000E94A90ACF91DF910895DF93CF93CDB751
:10455000DEB784E061E00E94A90ACF91DF9108955F
:10456000DF93CF93CDB7DEB784E060E00E94A90A65
:10457000CF91DF910895DF93CF93CDB7DEB785E07C
:1045800061E00E94A90ACF91DF910895DF93CF9354
:10459000CDB7DEB785E060E00E94A90ACF91DF9138
:1045A0000895DF93CF93CDB7DEB786E061E00E9438
:1045B000A90ACF91DF910895DF93CF93CDB7DEB7EE
:1045C00086E060E00E94A90ACF91DF910895DF9311
:1045D000CF93CDB7DEB787E061E00E94A90ACF9103
:1045E000DF910895DF93CF93CDB7DEB787E060E02A
:1045F0000E94A90ACF91DF910895DF93CF93CDB7A1
:10460000DEB786E161E00E94A90ACF91DF910895AB
:10461000DF93CF93CDB7DEB786E160E00E94A90AB1
:10462000CF91DF910895DF93CF93CDB7DEB7639736
:104630000FB6F894DEBF0FBECDBF8B8B80E00E941B
:104640009A070E94B6070E94DD079A8B898B898999
:104650009A89CC01A0E0B0E0BC01CD010E94070521
:10466000DC01CB01BC01CD0120E030E040E85EE39D
:104670000E941F02DC01CB01BC01CD010E94490058
:10468000DC01CB01988B8F8781E00E94ED178DE9CB
:1046900091E00E9421188F859889CC01A0E0B0E0BC
:1046A000BC01CD010E944A1881E060E00E94F71829
:1046B00086EA91E00E9421188B89882F90E0A0E083
:1046C000B0E0BC01CD010E944A1880E090E0A8E46F
:1046D000B2E48B879C87AD87BE876B857C858D8593
:1046E0009E8520E030E04AE755E40E941F02DC018D
:1046F000CB018F839887A987BA876F817885898551
:104700009A8520E030E040E85FE30E94250488239A
:104710002CF481E090E09E838D833FC06F8178858B
:1047200089859A8520E03FEF4FE757E40E94C50353
:1047300018164CF56B857C858D859E8520E030E0D4
:1047400040E251E40E941F02DC01CB01BC01CD011B
:104750000E944900DC01CB019E838D830FC080E95C
:1047600091E09C838B838B819C810197F1F79C83E3
:104770008B838D819E8101979E838D838D819E8108
:10478000009769F714C06F81788589859A850E94A2
:104790004900DC01CB019E838D838D819E819A83AC
:1047A000898389819A810197F1F79A8389838B891B
:1047B000282F30E08F8598892817390738F481E051
:1047C0000E94651182E30E9482110AC08B89282F02
:1047D00030E08F8598892817390710F00E948F11D3
:1047E00063960FB6F894DEBF0FBECDBFCF91DF91B9
:1047F0000895629FD001739FF001829FE00DF11D2B
:10480000649FE00DF11D929FF00D839FF00D749F4A
:10481000F00D659FF00D9927729FB00DE11DF91FF6
:10482000639FB00DE11DF91FBD01CF011124089553
:10483000991B79E004C0991F961708F0961B881FF2
:104840007A95C9F780950895AA1BBB1B51E107C053
:10485000AA1FBB1FA617B70710F0A61BB70B881F10
:10486000991F5A95A9F780959095BC01CD0108959F
:1048700097FB092E07260AD077FD04D0E5DF06D086
:1048800000201AF4709561957F4F0895F6F7909582
:1048900081959F4F0895A1E21A2EAA1BBB1BFD0113
:1048A0000DC0AA1FBB1FEE1FFF1FA217B307E4070F
:1048B000F50720F0A21BB30BE40BF50B661F771F67
:1048C000881F991F1A9469F7609570958095909547
:1048D0009B01AC01BD01CF01089597FB092E052670
:1048E0000ED057FD04D0D7DF0AD0001C38F4509505
:1048F0004095309521953F4F4F4F5F4F0895F6F704
:1049000090958095709561957F4F8F4F9F4F08953B
:104910002F923F924F925F926F927F928F929F92CF
:10492000AF92BF92CF92DF92EF92FF920F931F93BD
:10493000CF93DF93CDB7DEB7CA1BDB0B0FB6F8946E
:10494000DEBF0FBECDBF09942A88398848885F84AE
:104950006E847D848C849B84AA84B984C884DF801F
:10496000EE80FD800C811B81AA81B981CE0FD11D03
:104970000FB6F894DEBF0FBECDBFED010895F894D9
:02498000FFCF67
:1049820043686F6F73653A2020200020202020208A
:10499200456E746572205468652049443A202000AF
:1049A20020202020456E7465722050617373776FEA
:1049B20072643A202000456E746572205468652046
:1049C20049443A202000312E4164642020202000F6
:1049D200322E44656C6574652020202000332E45FC
:1049E20078697400000000312D2055736572204DE6
:1049F2006F646500322D2041646D696E204D6F64D5
:104A02006500456E74657220557365726E616D65E1
:104A12003A00456E7465722050617373776F7264E9
:104A22003A002057656C636F6D652055736572009F
:104A320057726F6E672050617373776F72640031C3
:104A42002E2054656D706572617475726500322E28
:104A5200204E65787400312E20526F6F6D204C69A4
:104A62006768747300312E20446F6F7200456E7454
:104A7200657220446573697265642054656D703A8D
:104A820000456E74657220526F6F6D204E756D3ADF
:104A920000312E204F6E00322E204F666600312EDE
:104AA200204F70656E00322E20436C6F7365005785
:104AB200656C636F6D652041646D696E004375724C
:104AC20072656E743A00446573697265643A0000F7
:104AD20000000000000000000102020303030304BF
:104AE200040404040404040505050505050505057B
:104AF200050505050505050606060606060606065B
:104B02000606060606060606060606060606060643
:104B1200060606060606060707070707070707072A
:104B22000707070707070707070707070707070713
:104B32000707070707070707070707070707070703
:104B420007070707070707070707070707070707F3
:104B520007070707070707080808080808080808DA
:104B620008080808080808080808080808080808C3
:104B720008080808080808080808080808080808B3
:104B820008080808080808080808080808080808A3
:104B92000808080808080808080808080808080893
:104BA2000808080808080808080808080808080883
:104BB2000808080808080808080808080808080873
:104BC2000808080808080808080808080808080863
:104BD2000808080808080800030100020101000192
:104BE20001010101020101040103000003010102AC
:104BF2000501020401020301020201030700030688
:104C02000003040003030000000101030101050188
:104C12000106010001010004010005010006010076
:104C220007010305010206017B193738392F343594
:0A4C3200362A3132332D63303D2B5A
:00000001FF
