:100000000C942A000C9447000C9447000C94470071
:100010000C9447000C9447000C9447000C94470044
:100020000C9447000C9447000C9414090C94EB08B2
:100030000C9447000C9447000C9447000C94470024
:100040000C9447000C9447000C9447000C94470014
:100050000C94470011241FBECFE5D8E0DEBFCDBF12
:1000600011E0A0E6B0E0E4E5FBE102C005900D92EE
:10007000AC3EB107D9F712E0ACEEB1E001C01D9281
:10008000A530B107E1F70E94740C0C94A80D0C94F4
:100090000000EF92FF920F931F937B018C0120E0F1
:1000A00030E040E05FE40E94190388238CF0C8012F
:1000B000B70120E030E040E05FE40E94C1010E940F
:1000C000A7039B01AC01205030404040504806C07F
:1000D000C801B7010E94A7039B01AC01B901CA0185
:1000E0001F910F91FF90EF900895A0E0B0E0EBE733
:1000F000F0E00C94710DDC012B01FA019C9192301F
:1001000008F439C1EB018881823008F433C194309E
:1001100069F4843009F02FC111969C91119789815F
:10012000981709F428C1A6EAB0E025C1843009F483
:1001300021C18230A9F4923009F01DC19A01AD01AC
:1001400088E0EA010990AE01E90109929E0181501F
:10015000C1F7E201898111969C918923818308C1AD
:10016000923009F407C112962D903C901397EB0141
:100170008A819B811496AD90BD90CD90DC901797AD
:10018000EC80FD800E811F819101281B390BB90184
:1001900037FF04C066277727621B730B6032710537
:1001A0000CF061C0121613066CF537014801062EDB
:1001B00004C096948794779467940A94D2F721E0C8
:1001C00030E040E050E004C0220F331F441F551FB1
:1001D0006A95D2F721503040404050402E213F21B7
:1001E00040235123211531054105510521F021E01E
:1001F00030E040E050E079018A01E628F72808293C
:1002000019293CC0232BD1F1260E371E350146019A
:10021000062E04C096948794779467940A94D2F734
:1002200021E030E040E050E004C0220F331F441FC3
:10023000551F6A95D2F721503040404050402A2146
:100240003B214C215D21211531054105510521F04E
:1002500021E030E040E050E059016A01A628B728CB
:10026000C828D9280BC0821593052CF01C01AA249C
:10027000BB24650103C0EE24FF24870111969C91E5
:10028000D20111968C91981709F445C0992339F041
:10029000A80197012A193B094C095D0906C0A6016E
:1002A00095012E193F09400B510B57FD08C01182D3
:1002B0003382228224833583468357831DC081E0A5
:1002C00081833382228288279927DC01821B930B4A
:1002D000A40BB50B84839583A683B7830DC0220F2F
:1002E000331F441F551F24833583468357838281E0
:1002F000938101979383828324813581468157813D
:10030000DA01C9010197A109B1098F5F9F4FAF4F72
:10031000BF4328F30BC0918333822282EA0CFB1C7B
:100320000C1D1D1DE482F5820683178383E0808304
:10033000248135814681578157FF1AC0C901AA27F8
:1003400097FDA095BA2F81709070A070B0705695EF
:10035000479537952795822B932BA42BB52B848318
:100360009583A683B7838281938101969383828349
:10037000DF0101C0D201CD01CDB7DEB7E2E10C94BF
:100380008D0DA0E2B0E0E7ECF1E00C947D0D698307
:100390007A838B839C832D833E834F835887E9E048
:1003A000EE2EF12CEC0EFD1ECE010196B7010E943F
:1003B0001F058E010F5E1F4FCE010596B8010E94EA
:1003C0001F058A8991E089278A8BC701B801AE0190
:1003D000475E5F4F0E9475000E944A04A096E6E0C7
:1003E0000C94990DA0E2B0E0E8EFF1E00C947D0DE3
:1003F00069837A838B839C832D833E834F835887C5
:10040000F9E0EF2EF12CEC0EFD1ECE010196B701A6
:100410000E941F058E010F5E1F4FCE010596B80189
:100420000E941F05C701B801AE01475E5F4F0E94E1
:1004300075000E944A04A096E6E00C94990DA0E293
:10044000B0E0E5E2F2E00C94710D69837A838B836E
:100450009C832D833E834F835887CE010196BE0136
:10046000675F7F4F0E941F05CE010596BE016F5E3C
:100470007F4F0E941F059985923088F089898230CC
:10048000C8F0943019F4823051F404C0843029F457
:10049000923081F486EA90E0C6C0923049F420E0C0
:1004A0009A858A89981321E02A87CE010996BBC0D4
:1004B000823049F420E09A858A89981321E02A8BBA
:1004C000CE014196B0C02D843E844F8458886D88FB
:1004D0007E888F88988CEE24FF248701AA24BB2471
:1004E000650140E050E060E070E0E0E0F0E0C10174
:1004F00081709070892BE9F0E60CF71C081D191D1E
:100500009A01AB012A0D3B1D4C1D5D1D80E090E062
:10051000A0E0B0E0E614F7040805190520F481E036
:1005200090E0A0E0B0E0BA01A901480F591F6A1F8E
:100530007B1FAA0CBB1CCC1CDD1C97FE08C081E0F5
:1005400090E0A0E0B0E0A82AB92ACA2ADB2A3196B6
:10055000E032F10549F0660C771C881C991C569412
:10056000479437942794C3CFFA85EA892B893C892D
:100570008B859C85280F391F2E5F3F4F17C0CA01FE
:1005800081709070892B61F016950795F794E79428
:1005900080E090E0A0E0B0E8E82AF92A0A2B1B2BC3
:1005A00076956795579547952F5F3F4F77FDE7CF36
:1005B0000CC0440F551F661F771F17FD4160EE0CDE
:1005C000FF1C001F111F21503040403090E05907A0
:1005D00090E0690790E4790760F32B8F3C8FDB0193
:1005E000CA018F779070A070B07080349105A1051A
:1005F000B10561F447FD0AC0E114F10401051105DC
:1006000029F0405C5F4F6F4F7F4F40781A8EFE1786
:1006100011F081E08A8F4D8F5E8F6F8F78A383E01A
:10062000898FCE0149960E944A04A096E2E10C947B
:100630008D0DA8E1B0E0EFE1F3E00C947D0D69834E
:100640007A838B839C832D833E834F83588789E0F5
:10065000E82EF12CEC0EFD1ECE010196B7010E9492
:100660001F058E010F5E1F4FCE010596B8010E9437
:100670001F058985823040F08989823028F0C701C2
:10068000B8010E94970501C08FEF6896E6E00C94D0
:10069000990DA8E0B0E0EFE4F3E00C947A0D9B0133
:1006A000AC0183E08983DA01C9018827B7FD83950E
:1006B0009927AA27BB27B82E2115310541055105D9
:1006C00019F482E089833AC08823A9F0203080E0C1
:1006D000380780E0480780E8580729F460E070E0B8
:1006E00080E09FEC30C0EE24FF248701E21AF30A79
:1006F000040B150B02C079018A018EE1C82ED12CA2
:10070000DC82CB82ED82FE820F831887C801B7019D
:100710000E94FB0301971816190684F4082E04C0E2
:10072000EE0CFF1C001F111F0A94D2F7ED82FE820F
:100730000F831887C81AD90ADC82CB82BA82CE010D
:1007400001960E944A042896E9E00C94960DACE0CC
:10075000B0E0EDEAF3E00C94810D69837A838B833A
:100760009C83CE010196BE016B5F7F4F0E941F05E7
:100770008D81823061F1823050F1843021F48E819C
:10078000882351F12EC02F81388537FD20C06E811E
:100790002F3131051CF06623F9F023C08EE190E083
:1007A000821B930B29853A854B855C8504C0569541
:1007B0004795379527958A95D2F76623B1F05095DE
:1007C0004095309521953F4F4F4F5F4F0EC020E031
:1007D00030E040E050E009C02FEF3FEF4FEF5FE720
:1007E00004C020E030E040E050E8B901CA012C9696
:1007F000E2E00C949D0DEF92FF920F931F937B010B
:100800008C0180E0E81680E0F80681E0080780E0CF
:10081000180788F48FEFE816F1040105110531F08F
:1008200028F088E090E0A0E0B0E017C080E090E021
:10083000A0E0B0E012C080E0E81680E0F80680E0BA
:10084000080781E0180728F088E190E0A0E0B0E018
:1008500004C080E190E0A0E0B0E020E230E040E0C1
:1008600050E0281B390B4A0B5B0B04C0169507950B
:10087000F794E7948A95D2F7F701E255FF4F80810C
:10088000281B310941095109C9011F910F91FF909E
:10089000EF900895DF92EF92FF920F931F93FC0168
:1008A000E480F58006811781D1808081823048F410
:1008B00080E090E0A0E1B0E0E82AF92A0A2B1B2BA7
:1008C000A5C0843009F49FC0823021F4EE24FF24B7
:1008D000870105C0E114F1040105110519F4E0E0F8
:1008E000F0E096C0628173819FEF623879070CF067
:1008F0005BC022E83FEF261B370B2A3131052CF075
:1009000020E030E040E050E02AC0B801A701022E0C
:1009100004C076956795579547950A94D2F781E07C
:1009200090E0A0E0B0E004C0880F991FAA1FBB1F91
:100930002A95D2F70197A109B1098E219F21A02301
:10094000B1230097A105B10521F081E090E0A0E07E
:10095000B0E09A01AB01282B392B4A2B5B2BDA0133
:10096000C9018F779070A070B07080349105A10597
:10097000B10539F427FF09C0205C3F4F4F4F5F4F4F
:1009800004C0215C3F4F4F4F5F4FE0E0F0E020306C
:10099000A0E03A07A0E04A07A0E45A0710F0E1E01F
:1009A000F0E079018A0127C06038710564F5FB0128
:1009B000E158FF4FD801C7018F779070A070B070D9
:1009C00080349105A105B10539F4E7FE0DC080E43E
:1009D00090E0A0E0B0E004C08FE390E0A0E0B0E0E1
:1009E000E80EF91E0A1F1B1F17FF05C01695079575
:1009F000F794E794319687E016950795F794E79476
:100A00008A95D1F705C0EE24FF248701EFEFF0E0CF
:100A10006E2F679566276795902F9F77D794DD2473
:100A2000D7948E2F8695492F462B582F5D29B701D5
:100A3000CA011F910F91FF90EF90DF900895FC0184
:100A4000DB01408151812281622F6F7770E0221F8C
:100A50002227221F9381892F880F822B282F30E095
:100A6000991F9927991F11969C931197211531056C
:100A7000A9F5411551056105710511F482E037C0F2
:100A800082E89FEF13969C938E9312979A01AB0185
:100A900067E0220F331F441F551F6A95D1F783E08B
:100AA0008C930DC0220F331F441F551F12968D913A
:100AB0009C911397019713969C938E9312972030D5
:100AC00080E0380780E0480780E4580758F3149620
:100AD0002D933D934D935C93179708952F3F3105C8
:100AE00079F4411551056105710519F484E08C9381
:100AF000089564FF03C081E08C9312C01C9210C063
:100B00002F57304013963C932E93129783E08C938B
:100B100087E0440F551F661F771F8A95D1F77064D1
:100B200014964D935D936D937C93179708951F933F
:100B3000DC01FB019C91923008F447C08081823037
:100B400008F443C0943051F411961C91843099F507
:100B50008181682F70E0611B71093FC0843021F0F2
:100B6000923031F48230B9F18181882389F12DC02E
:100B700011961C9111978230F1F081811817D9F4E8
:100B800012962D913C91139782819381821793073E
:100B900094F028173907BCF014968D919D910D9013
:100BA000BC91A02D248135814681578128173907B2
:100BB0004A075B0718F4112341F00AC08217930714
:100BC000A407B50740F4112319F061E070E005C0F7
:100BD0006FEF7FEF02C060E070E0CB011F910895DE
:100BE0003E9A3F9A3D98309A319A329A379A0895B0
:100BF00097B1987F97B997B18770892B87B9089576
:100C0000369A089524B135B1C9010895339A0895EB
:100C1000349BFECF24B135B1349AC9010895909325
:100C2000ED018093EC010895E091EC01F091ED016C
:100C3000309709F00995089587FD02C0880F82B9A1
:100C40008CE080B90898099886B7806486BF86B71B
:100C5000846086BF089586B7806286BF86B7806845
:100C600086BF06B607FEFDCF81B1887F8830E1F7E9
:100C7000089586B7806286BF86B7806886BF06B64D
:100C800007FEFDCF81B1887F8031E1F7089586B7F7
:100C9000806186BF86B7806886BF089587FD10C0D3
:100CA000880F83B9189886B78F7D86BF86B780680E
:100CB00086BF06B607FEFDCF81B1887F8831E1F798
:100CC000089587FD10C0880F83B9189A86B78F7D65
:100CD00086BF86B7806886BF06B607FEFDCF81B1A6
:100CE000887F8034E1F7089583B986B7806886BF2E
:100CF00006B607FEFDCF81B1887F8832E1F70895FF
:100D0000FC01009761F086B7806886BF06B607FED3
:100D1000FDCF81B1887F8035E1F783B1808308956D
:100D2000599810BC87E689B9539A549A86EA80BDCF
:100D300008955F9BFECF8CB190E008955D9BFECF40
:100D40008CB90895982F969596959695913041F186
:100D5000913038F0923009F442C0933009F07CC0F1
:100D60005DC0482F50E0613069F42BB3477050707C
:100D700081E090E002C0880F991F4A95E2F7282B86
:100D80002BBB08952BB34770507081E090E002C0F8
:100D9000880F991F4A95E2F7809582238BBB0895AF
:100DA000482F50E0613069F428B34770507081E0FB
:100DB00090E002C0880F991F4A95E2F7282B28BBC4
:100DC000089528B34770507081E090E002C0880F0A
:100DD000991F4A95E2F78095822388BB0895482F92
:100DE00050E0613069F425B34770507081E090E0C5
:100DF00002C0880F991F4A95E2F7282B25BB08955A
:100E000025B34770507081E090E002C0880F991FB1
:100E10004A95E2F78095822385BB0895482F50E0DC
:100E2000613069F422B34770507081E090E002C0F5
:100E3000880F991F4A95E2F7282B22BB089522B309
:100E40004770507081E090E002C0880F991F4A956A
:100E5000E2F78095822382BB0895282F8695869598
:100E60008695813049F0813028F0823039F0833026
:100E700089F406C089B305C086B303C083B301C03B
:100E800080B390E0277002C0959587952A95E2F788
:100E9000817008950895982F96959695969591301E
:100EA00041F1913038F0923009F442C0933009F0AA
:100EB0007CC05DC0482F50E0613069F42BB34770AF
:100EC000507081E090E002C0880F991F4A95E2F7C8
:100ED000282B2BBB08952BB34770507081E090E016
:100EE00002C0880F991F4A95E2F7809582238BBB39
:100EF0000895482F50E0613069F428B3477050706E
:100F000081E090E002C0880F991F4A95E2F7282BF4
:100F100028BB089528B34770507081E090E002C06C
:100F2000880F991F4A95E2F78095822388BB089520
:100F3000482F50E0613069F425B34770507081E06C
:100F400090E002C0880F991F4A95E2F7282B25BB35
:100F5000089525B34770507081E090E002C0880F7B
:100F6000991F4A95E2F78095822385BB0895482F03
:100F700050E0613069F422B34770507081E090E036
:100F800002C0880F991F4A95E2F7282B22BB0895CB
:100F900022B34770507081E090E002C0880F991F23
:100FA0004A95E2F78095822382BB0895382F869573
:100FB00086958695813099F0813028F08230D9F07D
:100FC000833081F524C02BB3377081E090E002C0FC
:100FD000880F991F3A95E2F728272BBB089528B36D
:100FE000377081E090E002C0880F991F3A95E2F7D0
:100FF000282728BB089525B3377081E090E002C010
:10100000880F991F3A95E2F7282725BB089522B348
:10101000377081E090E002C0880F991F3A95E2F79F
:10102000282722BB0895EEEAF1E041E050E073C0CA
:101030008081813011F1813030F08230C1F1833014
:1010400009F068C04EC082819181813051F42AB389
:10105000BA0102C0660F771F9A95E2F7262B2ABBCA
:1010600059C02AB3BA0102C0660F771F9A95E2F7FA
:10107000CB01809582238ABB4DC0828191818130D2
:1010800051F427B3BA0102C0660F771F9A95E2F7B1
:10109000262B27BB3FC027B3BA0102C0660F771FBC
:1010A0009A95E2F7CB018095822387BB33C082817A
:1010B0009181813051F424B3BA0102C0660F771FC9
:1010C0009A95E2F7262B24BB25C024B3BA0102C0AF
:1010D000660F771F9A95E2F7CB018095822384BB38
:1010E00019C082819181813051F421B3BA0102C0CB
:1010F000660F771F9A95E2F7262B21BB0BC021B311
:10110000BA0102C0660F771F9A95E2F7CB0180956E
:10111000822381BB339671E0EB3DF70709F088CF5E
:1011200008958FB780688FBF08958FB78F778FBF6F
:10113000089583B7806483BF83B7886083BF83B714
:10114000806183BF83B7806283BF83B7816083BFC1
:1011500083B78D7F83BF83B7846083BF12BE08953A
:1011600008B600FEFDCF12BE81E088BF0895089545
:1011700082BF089513BE08958CBF0895982F8536B9
:1011800060F480E024E630E0422F491B942F64E6AF
:1011900070E00E94210D61506CBF0895282F8536A4
:1011A000A0F484E690E0821B91092EEF31E0AC01BF
:1011B000429FC001439F900D529F900D112468ECF7
:1011C00070E00E94210D61506CBF08959093EF0173
:1011D0008093EE0108951F920F920FB60F92112483
:1011E0002F933F934F935F936F937F938F939F932F
:1011F000AF93BF93EF93FF93E091EE01F091EF0176
:10120000309709F00995FF91EF91BF91AF919F91B0
:101210008F917F916F915F914F913F912F910F909F
:101220000FBE0F901F9018951F920F920FB60F923E
:1012300011242F933F934F935F936F937F938F93DB
:101240009F93AF93BF93EF93FF93E091EE01F091E3
:10125000EF01309709F00995FF91EF91BF91AF91A0
:101260009F918F917F916F915F914F913F912F91BE
:101270000F900FBE0F901F9018958FB58E7F8FBD6A
:101280008FB582608FBD8EB588608EBD8EB5806152
:101290008EBD8FB580688FBD8FB58F7B8FBD089554
:1012A0009DBD8CBD8EB581608EBD8EB582608EBDBC
:1012B0008EB58B7F8EBD08951FBC1EBC08959BBD4F
:1012C0008ABD089599BD88BD08950F931F93082F77
:1012D000262F30E040E050E060E970ED83E090E0E0
:1012E0000E94340DC901019797BD86BD10E0209F73
:1012F000C001219F900D309F900D112464E670E095
:101300000E940D0D615070407BBD6ABD1F910F9111
:1013100008958EE060E00E94A20608951F93182FA2
:101320008EE061E00E94A206113019F48DE061E0C8
:1013300004C0123021F48DE060E00E94A2061F91EB
:1013400008950E94BE0808950E9499080895EF929A
:10135000FF920F931F93CF93DF938C01F62EE72E0E
:101360000E942B061065812F0E944E06802F0E943E
:1013700074060E943906812F0E9461062F2D3E2D92
:10138000C901EC0110E004C0822F0E9480061F5F9B
:101390002C2F9D2F8881882319F021961630A1F7D4
:1013A000822F0E9480060E94470680E29EE40197F9
:1013B000F1F7DF91CF911F910F91FF90EF9008957A
:1013C0000F931F93CF93DF938C01EB010E942B06A9
:1013D000812F80650E944E06802F0E94740600E0D7
:1013E00010E002C00E947406FE01E00FF11F808130
:1013F000882329F00F5F1F4F0730110599F70E94CE
:1014000074060E944706DF91CF911F910F910895B6
:101410000F931F93DF93CF930F92CDB7DEB78C015D
:101420000E942B061065812F0E944E06802F0E947D
:1014300074060E943906812F0E946106CE01019632
:101440000E9480060E94470680E29EE40197F1F721
:1014500089810F90CF91DF911F910F910895FF9295
:101460000F931F93182F092FF62E0E942B06802F03
:1014700080650E944E06812F0E9474068F2D0E9467
:1014800074060E94470680E29EE40197F1F71F91DF
:101490000F91FF90089581E00E941C06089586E058
:1014A00060E00E94A206089586E061E00E94A20624
:1014B000089585E060E00E94A206089585E061E05D
:1014C0000E94A206089584E060E00E94A2060895AA
:1014D00084E061E00E94A20608958FE060E00E942F
:1014E000A20608958FE061E00E94A206089586E1B9
:1014F00060E00E94A206089586E161E00E94A206D3
:101500000895CF92DF92EF92FF920F931F93DF9394
:10151000CF93CDB7DEB764970FB6F894DEBF0FBE9A
:10152000CDBF85E1898384E18A8383E18B8382E176
:101530008C83DE011596ECEDF1E080E101900D92D7
:101540008150E1F7EE24FF248E010F5F1F4FF80159
:10155000EE0DFF1DC0808C2D60E00E94A2064FE1C1
:10156000D42E8FE10E942D07882319F400E010E0AB
:101570001DC03EE1D32E8EE10E942D07882319F471
:1015800001E010E013C02CE1D22E8CE10E942D0767
:10159000882319F402E010E009C08BE10E942D07B6
:1015A0008823C9F403E010E09BE1D92E8D2D0E9421
:1015B0002D078823D9F38C2D61E00E94A206EE0C42
:1015C000FF1CEE0CFF1CFE013196EE0DFF1DE00F1F
:1015D000F11F84810DC08C2D61E00E94A206089449
:1015E000E11CF11C84E0E816F10409F0B0CF8FEFA4
:1015F00064960FB6F894DEBF0FBECDBFCF91DF91DA
:101600001F910F91FF90EF90DF90CF9008958FE1A1
:1016100061E00E944B078EE161E00E944B078CE184
:1016200061E00E944B078BE161E00E944B07089547
:101630001F93182F80FF03C088E061E002C088E09C
:1016400060E00E94A206812F869580FF03C089E09A
:1016500061E002C089E060E00E94A206812F8695C9
:10166000869580FF03C08AE061E002C08AE060E006
:101670000E94A206812F86958695869580FF03C0DD
:101680008CE061E002C08CE060E00E94A2061F9145
:10169000089582E061E00E94A20680EA9FE001973F
:1016A000F1F782E060E00E94A20608951F93182FD0
:1016B00083E061E00E94A206812F82958F700E94D4
:1016C000180B0E94490B812F0E94180B0E94490B96
:1016D0001F9108956F927F928F929F92AF92BF92C7
:1016E000CF92DF92EF92FF920F931F935B016C01F9
:1016F00097FF0BC08DE20E94560BD094C094B0941B
:10170000A094A11CB11CC11CD11C81E0682E712CBD
:10171000812C912C20C0C401B3012AE030E040E0CC
:1017200050E00E94EE0C7B018C01C601B5010E94C5
:10173000340D3B014C016E0C7F1C801E911EC601B6
:10174000B5012AE030E040E050E00E94340DC901CC
:10175000DA015C016D01A114B104C104D104D9F610
:1017600018C0C401B3012AE030E040E050E00E941C
:10177000340D862F805D0E94560BC401B3012AE010
:1017800030E040E050E00E94340DC901DA013C0134
:101790004D0182E0681671048104910414F71F91D1
:1017A0000F91FF90EF90DF90CF90BF90AF909F9000
:1017B0008F907F906F9008951F93CF93DF93EC01EC
:1017C00010E003C00E94560B1F5FFE01E10FF11DE8
:1017D00080818823B9F7DF91CF911F9108951F93DE
:1017E000182F83E060E00E94A206812F82958F70FF
:1017F0000E94180B0E94490B812F0E94180B0E9417
:10180000490B1F910895DF93CF9300D0CDB7DEB77A
:1018100090E8998390EC9A83FE01E80FF11D818195
:10182000860F0E94EF0B0F900F90CF91DF910895DC
:101830001F9382EC91E020E931E0F9013197F1F753
:101840000197D9F783E060E00E94A2060E94490B4D
:1018500082E00E94180B0E94490B88E20E94EF0B65
:1018600010EF812F8A95F1F78FE00E94EF0B1A9508
:10187000F1F781E00E94EF0B80E49FE10197F1F71F
:1018800086E00E94EF0B1F9108950E945C09089565
:10189000EF92FF920F931F93E82E0E943D09FF24C1
:1018A000E7FCF0940F2D1F2DC801B7010E944903DA
:1018B00029E33EE843EE5CE30E941F0220E030E0B3
:1018C00040EF50E40E94F2010E944900DC01CB018C
:1018D00064E60E94650980E090E00E9450091F9133
:1018E0000F91FF90EF900895EF92FF920F931F9347
:1018F0000E9413080E94070B0E94180C80E690E0DB
:101900000E94DC0B81E060E00E94030C8DE690E019
:101910000E94DC0B92E0E92E83E0F82E0AE00E94A0
:10192000810A982F8F3FB9F080910002882399F4A3
:10193000913359F48BE790E00E94DC0B81E00E9428
:10194000EF0B81E08093000206C0923321F488E817
:1019500090E00E94DC0B80910002813081F4809144
:101960000302833060F486E990E00E94DC0B81E0A2
:1019700060E00E94030CE09200021092010280914C
:101980000302833060F680910002823041F60E94AB
:10199000810A182F8F3F19F28D3389F00E94560B60
:1019A00080910102809F802D11248053810F8093AC
:1019B0000102809102028F5F80930202B0CFF09209
:1019C0000002809103028F5F809303026091010205
:1019D00070E080E090E00E946A0BA1CF629FD0018E
:1019E000739FF001829FE00DF11D649FE00DF11DDA
:1019F000929FF00D839FF00D749FF00D659FF00D89
:101A00009927729FB00DE11DF91F639FB00DE11D75
:101A1000F91FBD01CF0111240895AA1BBB1B51E181
:101A200007C0AA1FBB1FA617B70710F0A61BB70B4E
:101A3000881F991F5A95A9F780959095BC01CD01F3
:101A4000089597FB092E07260AD077FD04D0E5DF1D
:101A500006D000201AF4709561957F4F0895F6F72F
:101A6000909581959F4F089597FB092E05260ED0DE
:101A700057FD04D014D00AD0001C38F4509540957E
:101A8000309521953F4F4F4F5F4F0895F6F7909552
:101A90008095709561957F4F8F4F9F4F0895A1E27C
:101AA0001A2EAA1BBB1BFD010DC0AA1FBB1FEE1FD8
:101AB000FF1FA217B307E407F50720F0A21BB30B23
:101AC000E40BF50B661F771F881F991F1A9469F79F
:101AD00060957095809590959B01AC01BD01CF01FB
:101AE00008952F923F924F925F926F927F928F92C2
:101AF0009F92AF92BF92CF92DF92EF92FF920F939D
:101B00001F93CF93DF93CDB7DEB7CA1BDB0B0FB6A6
:101B1000F894DEBF0FBECDBF09942A883988488863
:101B20005F846E847D848C849B84AA84B984C884F9
:101B3000DF80EE80FD800C811B81AA81B981CE0FF0
:101B4000D11D0FB6F894DEBF0FBECDBFED010895D5
:041B5000F894FFCF37
:101B5400312D2055736572204D6F646500322D2040
:101B640041646D696E204D6F64650057656C636FE9
:101B74006D6520557365720057656C636F6D6520E4
:101B840041646D696E00456E7465722050617373B3
:101B9400776F72643A00000000000000000000014A
:101BA40002020303030304040404040404040505F7
:101BB40005050505050505050505050505050606CF
:101BC40006060606060606060606060606060606B1
:101BD400060606060606060606060606060607079F
:101BE4000707070707070707070707070707070781
:101BF4000707070707070707070707070707070771
:101C04000707070707070707070707070707070760
:101C1400070707070707070707070707070708084E
:101C24000808080808080808080808080808080830
:101C34000808080808080808080808080808080820
:101C44000808080808080808080808080808080810
:101C54000808080808080808080808080808080800
:101C640008080808080808080808080808080808F0
:101C740008080808080808080808080808080808E0
:101C840008080808080808080808080808080808D0
:101C940008080808080808080808080808080003CD
:101CA400010002010100010101010102010104011D
:101CB40002050102040102030102020103070003F9
:101CC40006000304000303000107017B3738392FA2
:0C1CD4003435362A3132332D63303D2B7D
:00000001FF
